{"abi":[{"type":"constructor","inputs":[],"stateMutability":"nonpayable"},{"type":"function","name":"DEBASE_EVERY","inputs":[],"outputs":[{"name":"","type":"uint256","internalType":"uint256"}],"stateMutability":"view"},{"type":"function","name":"DEPLOYED_TIME","inputs":[],"outputs":[{"name":"","type":"uint256","internalType":"uint256"}],"stateMutability":"view"},{"type":"function","name":"DOMAIN_SEPARATOR","inputs":[],"outputs":[{"name":"","type":"bytes32","internalType":"bytes32"}],"stateMutability":"view"},{"type":"function","name":"FEES_BASE","inputs":[],"outputs":[{"name":"","type":"uint256","internalType":"uint256"}],"stateMutability":"view"},{"type":"function","name":"FEES_STAKING","inputs":[],"outputs":[{"name":"","type":"uint256","internalType":"uint256"}],"stateMutability":"view"},{"type":"function","name":"HALVING_EVERY","inputs":[],"outputs":[{"name":"","type":"uint256","internalType":"uint256"}],"stateMutability":"view"},{"type":"function","name":"INITIAL_SUPPLY","inputs":[],"outputs":[{"name":"","type":"uint256","internalType":"uint256"}],"stateMutability":"view"},{"type":"function","name":"MINIMUM_TOTAL_SUPPLY","inputs":[],"outputs":[{"name":"","type":"uint256","internalType":"uint256"}],"stateMutability":"view"},{"type":"function","name":"NB_DEBASE_PER_HALVING","inputs":[],"outputs":[{"name":"","type":"uint256","internalType":"uint256"}],"stateMutability":"view"},{"type":"function","name":"SHARES_PRECISION_FACTOR","inputs":[],"outputs":[{"name":"","type":"uint256","internalType":"uint256"}],"stateMutability":"view"},{"type":"function","name":"allowance","inputs":[{"name":"owner","type":"address","internalType":"address"},{"name":"spender","type":"address","internalType":"address"}],"outputs":[{"name":"","type":"uint256","internalType":"uint256"}],"stateMutability":"view"},{"type":"function","name":"approve","inputs":[{"name":"spender","type":"address","internalType":"address"},{"name":"value","type":"uint256","internalType":"uint256"}],"outputs":[{"name":"","type":"bool","internalType":"bool"}],"stateMutability":"nonpayable"},{"type":"function","name":"balanceOf","inputs":[{"name":"account","type":"address","internalType":"address"}],"outputs":[{"name":"","type":"uint256","internalType":"uint256"}],"stateMutability":"view"},{"type":"function","name":"computeNewState","inputs":[],"outputs":[{"name":"totalShares_","type":"uint256","internalType":"uint256"},{"name":"totalSupply_","type":"uint256","internalType":"uint256"},{"name":"fees_","type":"uint256","internalType":"uint256"}],"stateMutability":"view"},{"type":"function","name":"computeSupply","inputs":[],"outputs":[{"name":"totalSupply_","type":"uint256","internalType":"uint256"},{"name":"fees_","type":"uint256","internalType":"uint256"}],"stateMutability":"view"},{"type":"function","name":"decimals","inputs":[],"outputs":[{"name":"","type":"uint8","internalType":"uint8"}],"stateMutability":"view"},{"type":"function","name":"eip712Domain","inputs":[],"outputs":[{"name":"fields","type":"bytes1","internalType":"bytes1"},{"name":"name","type":"string","internalType":"string"},{"name":"version","type":"string","internalType":"string"},{"name":"chainId","type":"uint256","internalType":"uint256"},{"name":"verifyingContract","type":"address","internalType":"address"},{"name":"salt","type":"bytes32","internalType":"bytes32"},{"name":"extensions","type":"uint256[]","internalType":"uint256[]"}],"stateMutability":"view"},{"type":"function","name":"feesCollector","inputs":[],"outputs":[{"name":"","type":"address","internalType":"address"}],"stateMutability":"view"},{"type":"function","name":"initialize","inputs":[{"name":"feeCollector","type":"address","internalType":"address"},{"name":"uniV2PoolAddr","type":"address","internalType":"address"}],"outputs":[],"stateMutability":"nonpayable"},{"type":"function","name":"maxSharesReached","inputs":[],"outputs":[{"name":"","type":"bool","internalType":"bool"}],"stateMutability":"view"},{"type":"function","name":"name","inputs":[],"outputs":[{"name":"","type":"string","internalType":"string"}],"stateMutability":"view"},{"type":"function","name":"nonces","inputs":[{"name":"owner","type":"address","internalType":"address"}],"outputs":[{"name":"","type":"uint256","internalType":"uint256"}],"stateMutability":"view"},{"type":"function","name":"owner","inputs":[],"outputs":[{"name":"","type":"address","internalType":"address"}],"stateMutability":"view"},{"type":"function","name":"permit","inputs":[{"name":"owner","type":"address","internalType":"address"},{"name":"spender","type":"address","internalType":"address"},{"name":"value","type":"uint256","internalType":"uint256"},{"name":"deadline","type":"uint256","internalType":"uint256"},{"name":"v","type":"uint8","internalType":"uint8"},{"name":"r","type":"bytes32","internalType":"bytes32"},{"name":"s","type":"bytes32","internalType":"bytes32"}],"outputs":[],"stateMutability":"nonpayable"},{"type":"function","name":"realBalanceOf","inputs":[{"name":"account","type":"address","internalType":"address"}],"outputs":[{"name":"balance_","type":"uint256","internalType":"uint256"}],"stateMutability":"view"},{"type":"function","name":"renounceOwnership","inputs":[],"outputs":[],"stateMutability":"nonpayable"},{"type":"function","name":"setBlacklistForUpdateSupply","inputs":[{"name":"addrToBlacklist","type":"address","internalType":"address"},{"name":"value","type":"bool","internalType":"bool"}],"outputs":[],"stateMutability":"nonpayable"},{"type":"function","name":"setFeesCollector","inputs":[{"name":"feeCollector","type":"address","internalType":"address"}],"outputs":[],"stateMutability":"nonpayable"},{"type":"function","name":"setUniswapV2Pair","inputs":[{"name":"uniV2PoolAddr","type":"address","internalType":"address"}],"outputs":[],"stateMutability":"nonpayable"},{"type":"function","name":"sharesOf","inputs":[{"name":"user","type":"address","internalType":"address"}],"outputs":[{"name":"","type":"uint256","internalType":"uint256"}],"stateMutability":"view"},{"type":"function","name":"sharesToToken","inputs":[{"name":"shares","type":"uint256","internalType":"uint256"},{"name":"newTotalShares","type":"uint256","internalType":"uint256"},{"name":"newTotalSupply","type":"uint256","internalType":"uint256"}],"outputs":[{"name":"tokenAmount_","type":"uint256","internalType":"uint256"}],"stateMutability":"pure"},{"type":"function","name":"sharesToToken","inputs":[{"name":"shares","type":"uint256","internalType":"uint256"}],"outputs":[{"name":"tokenAmount_","type":"uint256","internalType":"uint256"}],"stateMutability":"view"},{"type":"function","name":"symbol","inputs":[],"outputs":[{"name":"","type":"string","internalType":"string"}],"stateMutability":"view"},{"type":"function","name":"tokenToShares","inputs":[{"name":"amount","type":"uint256","internalType":"uint256"}],"outputs":[{"name":"","type":"uint256","internalType":"uint256"}],"stateMutability":"view"},{"type":"function","name":"tokenToShares","inputs":[{"name":"amount","type":"uint256","internalType":"uint256"},{"name":"newTotalShares","type":"uint256","internalType":"uint256"},{"name":"newTotalSupply","type":"uint256","internalType":"uint256"}],"outputs":[{"name":"","type":"uint256","internalType":"uint256"}],"stateMutability":"pure"},{"type":"function","name":"totalShares","inputs":[],"outputs":[{"name":"","type":"uint256","internalType":"uint256"}],"stateMutability":"view"},{"type":"function","name":"totalSupply","inputs":[],"outputs":[{"name":"","type":"uint256","internalType":"uint256"}],"stateMutability":"view"},{"type":"function","name":"transfer","inputs":[{"name":"to","type":"address","internalType":"address"},{"name":"value","type":"uint256","internalType":"uint256"}],"outputs":[{"name":"","type":"bool","internalType":"bool"}],"stateMutability":"nonpayable"},{"type":"function","name":"transferFrom","inputs":[{"name":"from","type":"address","internalType":"address"},{"name":"to","type":"address","internalType":"address"},{"name":"value","type":"uint256","internalType":"uint256"}],"outputs":[{"name":"","type":"bool","internalType":"bool"}],"stateMutability":"nonpayable"},{"type":"function","name":"transferOwnership","inputs":[{"name":"newOwner","type":"address","internalType":"address"}],"outputs":[],"stateMutability":"nonpayable"},{"type":"function","name":"transferShares","inputs":[{"name":"to","type":"address","internalType":"address"},{"name":"shares","type":"uint256","internalType":"uint256"}],"outputs":[{"name":"","type":"bool","internalType":"bool"}],"stateMutability":"nonpayable"},{"type":"function","name":"transferSharesFrom","inputs":[{"name":"from","type":"address","internalType":"address"},{"name":"to","type":"address","internalType":"address"},{"name":"shares","type":"uint256","internalType":"uint256"}],"outputs":[{"name":"","type":"bool","internalType":"bool"}],"stateMutability":"nonpayable"},{"type":"function","name":"uniswapV2Pair","inputs":[],"outputs":[{"name":"","type":"address","internalType":"contract IUniswapV2Pair"}],"stateMutability":"view"},{"type":"function","name":"updateTotalSupply","inputs":[],"outputs":[],"stateMutability":"nonpayable"},{"type":"event","name":"Approval","inputs":[{"name":"owner","type":"address","indexed":true,"internalType":"address"},{"name":"spender","type":"address","indexed":true,"internalType":"address"},{"name":"value","type":"uint256","indexed":false,"internalType":"uint256"}],"anonymous":false},{"type":"event","name":"BlacklistForUpdateSupplySet","inputs":[{"name":"account","type":"address","indexed":true,"internalType":"address"},{"name":"value","type":"bool","indexed":true,"internalType":"bool"}],"anonymous":false},{"type":"event","name":"EIP712DomainChanged","inputs":[],"anonymous":false},{"type":"event","name":"FeesCollectorSet","inputs":[{"name":"feesCollector","type":"address","indexed":true,"internalType":"address"}],"anonymous":false},{"type":"event","name":"MaxSharesReached","inputs":[{"name":"timestamp","type":"uint256","indexed":false,"internalType":"uint256"}],"anonymous":false},{"type":"event","name":"OwnershipTransferred","inputs":[{"name":"previousOwner","type":"address","indexed":true,"internalType":"address"},{"name":"newOwner","type":"address","indexed":true,"internalType":"address"}],"anonymous":false},{"type":"event","name":"TotalSupplyUpdated","inputs":[{"name":"oldTotalSupply","type":"uint256","indexed":false,"internalType":"uint256"},{"name":"newTotalSupply","type":"uint256","indexed":false,"internalType":"uint256"},{"name":"oldTotalShare","type":"uint256","indexed":false,"internalType":"uint256"},{"name":"newTotalShare","type":"uint256","indexed":false,"internalType":"uint256"},{"name":"fees","type":"uint256","indexed":false,"internalType":"uint256"}],"anonymous":false},{"type":"event","name":"Transfer","inputs":[{"name":"from","type":"address","indexed":true,"internalType":"address"},{"name":"to","type":"address","indexed":true,"internalType":"address"},{"name":"value","type":"uint256","indexed":false,"internalType":"uint256"}],"anonymous":false},{"type":"event","name":"UniV2PoolPairSet","inputs":[{"name":"uniV2PoolPair","type":"address","indexed":true,"internalType":"address"}],"anonymous":false},{"type":"error","name":"ECDSAInvalidSignature","inputs":[]},{"type":"error","name":"ECDSAInvalidSignatureLength","inputs":[{"name":"length","type":"uint256","internalType":"uint256"}]},{"type":"error","name":"ECDSAInvalidSignatureS","inputs":[{"name":"s","type":"bytes32","internalType":"bytes32"}]},{"type":"error","name":"ERC20InsufficientAllowance","inputs":[{"name":"spender","type":"address","internalType":"address"},{"name":"allowance","type":"uint256","internalType":"uint256"},{"name":"needed","type":"uint256","internalType":"uint256"}]},{"type":"error","name":"ERC20InsufficientBalance","inputs":[{"name":"sender","type":"address","internalType":"address"},{"name":"balance","type":"uint256","internalType":"uint256"},{"name":"needed","type":"uint256","internalType":"uint256"}]},{"type":"error","name":"ERC20InvalidApprover","inputs":[{"name":"approver","type":"address","internalType":"address"}]},{"type":"error","name":"ERC20InvalidReceiver","inputs":[{"name":"receiver","type":"address","internalType":"address"}]},{"type":"error","name":"ERC20InvalidSender","inputs":[{"name":"sender","type":"address","internalType":"address"}]},{"type":"error","name":"ERC20InvalidSpender","inputs":[{"name":"spender","type":"address","internalType":"address"}]},{"type":"error","name":"ERC2612ExpiredSignature","inputs":[{"name":"deadline","type":"uint256","internalType":"uint256"}]},{"type":"error","name":"ERC2612InvalidSigner","inputs":[{"name":"signer","type":"address","internalType":"address"},{"name":"owner","type":"address","internalType":"address"}]},{"type":"error","name":"InvalidAccountNonce","inputs":[{"name":"account","type":"address","internalType":"address"},{"name":"currentNonce","type":"uint256","internalType":"uint256"}]},{"type":"error","name":"InvalidShortString","inputs":[]},{"type":"error","name":"MathOverflowedMulDiv","inputs":[]},{"type":"error","name":"OwnableInvalidOwner","inputs":[{"name":"owner","type":"address","internalType":"address"}]},{"type":"error","name":"OwnableUnauthorizedAccount","inputs":[{"name":"account","type":"address","internalType":"address"}]},{"type":"error","name":"PONZIO_alreadyInitialized","inputs":[]},{"type":"error","name":"PONZIO_feeCollectorZeroAddress","inputs":[]},{"type":"error","name":"PONZIO_notInitialized","inputs":[]},{"type":"error","name":"SafeCastOverflowedUintDowncast","inputs":[{"name":"bits","type":"uint8","internalType":"uint8"},{"name":"value","type":"uint256","internalType":"uint256"}]},{"type":"error","name":"StringTooLong","inputs":[{"name":"str","type":"string","internalType":"string"}]}],"bytecode":{"object":"0x610180604052600c805460ff60a01b19908116909155600d8054909116905534801561002a57600080fd5b50336040518060400160405280601081526020016f10985cd948135a5b1b1a5bdb8810d85d60821b81525060405180604001604052806003815260200162424d4360e81b8152506012600a61007f91906103dd565b61008d906301406f406103f3565b6040805180820190915260018152603160f81b602082015283908190818560036100b783826104ab565b5060046100c482826104ab565b506100d491508390506005610220565b610120526100e3816006610220565b61014052815160208084019190912060e052815190820120610100524660a05261017060e05161010051604080517f8b73c3c69bb8fe3d512ecc4cf759cc79239f7b179b0ffacaa9a75d522b39400f60208201529081019290925260608201524660808201523060a082015260009060c00160405160208183030381529060405280519060200120905090565b60805250503060c052506101866103e8826103f3565b336000908152600860205260409020556101a26103e8826103f3565b6009555050506001600160a01b0381166101d757604051631e4fbdf760e01b8152600060048201526024015b60405180910390fd5b6101e081610253565b5042610160526101f26012600a6103dd565b610200906301406f406103f3565b6001600160d81b0316600160d81b4264ffffffffff160217600e556105dd565b600060208351101561023c57610235836102a5565b905061024d565b8161024784826104ab565b5060ff90505b92915050565b600b80546001600160a01b038381166001600160a01b0319831681179093556040519116919082907f8be0079c531659141344cd1fd0a4f28419497f9722a3daafe3b4186f6b6457e090600090a35050565b600080829050601f815111156102d0578260405163305a27a960e01b81526004016101ce919061056a565b80516102db826105b9565b179392505050565b634e487b7160e01b600052601160045260246000fd5b600181815b8085111561033457816000190482111561031a5761031a6102e3565b8085161561032757918102915b93841c93908002906102fe565b509250929050565b60008261034b5750600161024d565b816103585750600061024d565b816001811461036e576002811461037857610394565b600191505061024d565b60ff841115610389576103896102e3565b50506001821b61024d565b5060208310610133831016604e8410600b84101617156103b7575081810a61024d565b6103c183836102f9565b80600019048211156103d5576103d56102e3565b029392505050565b60006103ec60ff84168361033c565b9392505050565b808202811582820484141761024d5761024d6102e3565b634e487b7160e01b600052604160045260246000fd5b600181811c9082168061043457607f821691505b60208210810361045457634e487b7160e01b600052602260045260246000fd5b50919050565b601f8211156104a6576000816000526020600020601f850160051c810160208610156104835750805b601f850160051c820191505b818110156104a25782815560010161048f565b5050505b505050565b81516001600160401b038111156104c4576104c461040a565b6104d8816104d28454610420565b8461045a565b602080601f83116001811461050d57600084156104f55750858301515b600019600386901b1c1916600185901b1785556104a2565b600085815260208120601f198616915b8281101561053c5788860151825594840194600190910190840161051d565b508582101561055a5787850151600019600388901b60f8161c191681555b5050505050600190811b01905550565b60006020808352835180602085015260005b818110156105985785810183015185820160400152820161057c565b506000604082860101526040601f19601f8301168501019250505092915050565b805160208083015191908110156104545760001960209190910360031b1b16919050565b60805160a05160c05160e05161010051610120516101405161016051612b88610649600039600081816104510152610cbe01526000611dbd01526000611d90015260006117ef015260006117c7015260006117220152600061174c015260006117760152612b886000f3fe608060405234801561001057600080fd5b50600436106102f45760003560e01c80637a60e06911610191578063baa83f69116100e3578063db6905ab11610097578063f2fde38b11610071578063f2fde38b14610679578063f5eb42dc1461068c578063fda9c947146106c257600080fd5b8063db6905ab14610607578063dd62ed3e1461062a578063ece531b01461067057600080fd5b8063d0dc5c65116100c8578063d0dc5c65146105d9578063d4245ebb146105e1578063d505accf146105f457600080fd5b8063baa83f69146105a3578063c53dc757146105c657600080fd5b806395d89b4111610145578063a29a60891161011f578063a29a608914610575578063a9059cbb14610588578063b23b36ad1461059b57600080fd5b806395d89b411461053c57806399a03c70146105445780639cf160f61461055757600080fd5b806384b0196e1161017657806384b0196e146104f05780638da5cb5b1461050b5780638fcb4e5b1461052957600080fd5b80637a60e069146104c05780637ecebe00146104dd57600080fd5b80633a98ef391161024a57806365017796116101fe57806370a08231116101d857806370a082311461049957806370fc982d146104ac578063715018a6146104b857600080fd5b8063650177961461044c5780636cf81ec6146104735780636d7804591461048657600080fd5b806349bd5a5e1161022f57806349bd5a5e146103f15780634b457d98146104305780635e703fec1461043957600080fd5b80633a98ef39146103d6578063485cc955146103de57600080fd5b8063280cc3d2116102ac578063361bb0c111610286578063361bb0c1146103a65780633644e515146103b9578063373071f2146103c157600080fd5b8063280cc3d2146103865780632ff2e9dc1461038f578063313ce5671461039757600080fd5b806318160ddd116102dd57806318160ddd1461033a5780631db6e8501461036957806323b872dd1461037357600080fd5b806306fdde03146102f9578063095ea7b314610317575b600080fd5b6103016106cb565b60405161030e919061260a565b60405180910390f35b61032a610325366004612646565b61075d565b604051901515815260200161030e565b600e547affffffffffffffffffffffffffffffffffffffffffffffffffffff165b60405190815260200161030e565b61035b6205469081565b61032a610381366004612670565b610777565b61035b61080a81565b61035b61079d565b6040516012815260200161030e565b61035b6103b43660046126ac565b6107ba565b61035b6107e9565b6103d46103cf3660046126c5565b6107f8565b005b60095461035b565b6103d46103ec3660046126e0565b610918565b600d5473ffffffffffffffffffffffffffffffffffffffff165b60405173ffffffffffffffffffffffffffffffffffffffff909116815260200161030e565b61035b61053981565b61035b610447366004612713565b610b30565b61035b7f000000000000000000000000000000000000000000000000000000000000000081565b61035b6104813660046126ac565b610b45565b61032a610494366004612670565b610b74565b61035b6104a73660046126c5565b610bc3565b61035b64e8d4a5100081565b6103d4610c1a565b6104c8610c2e565b6040805192835260208301919091520161030e565b61035b6104eb3660046126c5565b610e47565b6104f8610e52565b60405161030e979695949392919061273f565b600b5473ffffffffffffffffffffffffffffffffffffffff1661040b565b61032a610537366004612646565b610eb4565b610301610eca565b61035b6105523660046126c5565b610ed9565b600c5473ffffffffffffffffffffffffffffffffffffffff1661040b565b6103d46105833660046126c5565b610f1d565b61032a610596366004612646565b610f94565b61035b610fa2565b6105ab610fb1565b6040805193845260208401929092529082015260600161030e565b61035b6105d4366004612713565b611056565b6103d4611063565b6103d46105ef366004612801565b6112e4565b6103d461060236600461283d565b61136b565b600c5474010000000000000000000000000000000000000000900460ff1661032a565b61035b6106383660046126e0565b73ffffffffffffffffffffffffffffffffffffffff918216600090815260016020908152604080832093909416825291909152205490565b61035b61271081565b6103d46106873660046126c5565b61151d565b61035b61069a3660046126c5565b73ffffffffffffffffffffffffffffffffffffffff1660009081526008602052604090205490565b61035b6103e881565b6060600380546106da906128b0565b80601f0160208091040260200160405190810160405280929190818152602001828054610706906128b0565b80156107535780601f1061072857610100808354040283529160200191610753565b820191906000526020600020905b81548152906001019060200180831161073657829003601f168201915b5050505050905090565b60003361076b818585611581565b60019150505b92915050565b60003361078585828561158e565b61079085858561165d565b60019150505b9392505050565b6107a96012600a612a52565b6107b7906301406f40612a61565b81565b6000610771826009546105d4600e547affffffffffffffffffffffffffffffffffffffffffffffffffffff1690565b60006107f3611708565b905090565b610800611840565b600d5474010000000000000000000000000000000000000000900460ff16610854576040517faa324d7c00000000000000000000000000000000000000000000000000000000815260040160405180910390fd5b73ffffffffffffffffffffffffffffffffffffffff81166108a1576040517f874252b500000000000000000000000000000000000000000000000000000000815260040160405180910390fd5b6108a9611063565b600c80547fffffffffffffffffffffffff00000000000000000000000000000000000000001673ffffffffffffffffffffffffffffffffffffffff83169081179091556040517f2e5c9b2d1f2851a0e14220e58e1e816d1320fc05d2c89a5657bedc5a9943c20d90600090a250565b610920611840565b600d5474010000000000000000000000000000000000000000900460ff1615610975576040517f8443444a00000000000000000000000000000000000000000000000000000000815260040160405180910390fd5b73ffffffffffffffffffffffffffffffffffffffff82166109c2576040517f874252b500000000000000000000000000000000000000000000000000000000815260040160405180910390fd5b600d805473ffffffffffffffffffffffffffffffffffffffff83167fffffffffffffffffffffff000000000000000000000000000000000000000000909116811774010000000000000000000000000000000000000000179091556040517f73f069d9129374dc8becc030b822edfd551de07458e25992e89e7bf50cd4a06390600090a273ffffffffffffffffffffffffffffffffffffffff81166000818152600a602052604080822080547fffffffffffffffffffffffffffffffffffffffffffffffffffffffffffffff0016600190811790915590519092917f4a8bc871bc382f8f05aa4ee5015bd9d5eeafc8334ba96536b463dd2657a64f1591a3600c80547fffffffffffffffffffffffff00000000000000000000000000000000000000001673ffffffffffffffffffffffffffffffffffffffff84169081179091556040517f2e5c9b2d1f2851a0e14220e58e1e816d1320fc05d2c89a5657bedc5a9943c20d90600090a25050565b6000610b3d848385611893565b949350505050565b600061077182600954610447600e547affffffffffffffffffffffffffffffffffffffffffffffffffffff1690565b600080610b808361198e565b905080158015610b905750600083115b15610ba357610ba0600182612a78565b90505b610bae85338361158e565b610bba858585846119c6565b95945050505050565b600e5460095473ffffffffffffffffffffffffffffffffffffffff83166000908152600860205260408120549092610771927affffffffffffffffffffffffffffffffffffffffffffffffffffff90911690611893565b610c22611840565b610c2c6000611d07565b565b600e54600c5460009182917affffffffffffffffffffffffffffffffffffffffffffffffffffff9091169074010000000000000000000000000000000000000000900460ff1615610c825792600092509050565b600e547b01000000000000000000000000000000000000000000000000000000900464ffffffffff1664e8d4a510008214610dbd576000610ce37f000000000000000000000000000000000000000000000000000000000000000042612a8b565b90506000610cf46205469083612acd565b610cff906002612ae1565b610d0b6012600a612a52565b610d19906301406f40612a61565b610d239190612acd565b90506002610d3661080a62054690612acd565b61080a610d466205469086612aed565b610d509190612acd565b610d5a9084612a61565b610d649190612acd565b610d6e9190612acd565b610d789082612a8b565b955064e8d4a51000861015610d905764e8d4a5100095505b612710610539610da08887612a8b565b610daa9190612a61565b610db49190612acd565b94505050610e41565b64e8d4a51000935062054690610dd38242612a8b565b1015610e205761271062054690610dea8342612a8b565b610dfb61053964e8d4a51000612a61565b610e059190612a61565b610e0f9190612acd565b610e199190612acd565b9250610e41565b612710610e3461053964e8d4a51000612a61565b610e3e9190612acd565b92505b50509091565b600061077182611d7e565b600060608060008060006060610e66611d89565b610e6e611db6565b604080516000808252602082019092527f0f000000000000000000000000000000000000000000000000000000000000009b939a50919850469750309650945092509050565b6000610796338484610ec586610b45565b6119c6565b6060600480546106da906128b0565b6000806000610ee6610fb1565b5073ffffffffffffffffffffffffffffffffffffffff86166000908152600860205260409020549193509150610b3d908383610b30565b610f25611840565b600d80547fffffffffffffffffffffffff00000000000000000000000000000000000000001673ffffffffffffffffffffffffffffffffffffffff83169081179091556040517f73f069d9129374dc8becc030b822edfd551de07458e25992e89e7bf50cd4a06390600090a250565b60003361076b81858561165d565b6107b761080a62054690612acd565b6000806000806009549050610fc4610c2e565b90935091506000838310610fe6575080610fdf600285612acd565b9250610fff565b610ffc83610ff48187612a8b565b849190611893565b90505b600061100b8383611de3565b965090508061104e577fffffffffffffffffffffffffffffffffffffffffffffffffffffffffffffffff955061104b6110448488612a8b565b8787610b30565b93505b505050909192565b6000610b3d848484611893565b600e5464ffffffffff4281167b01000000000000000000000000000000000000000000000000000000909204160361109757565b6000806110a2610c2e565b600c54919350915073ffffffffffffffffffffffffffffffffffffffff1681158015906110e4575073ffffffffffffffffffffffffffffffffffffffff811615155b156112df57600e547affffffffffffffffffffffffffffffffffffffffffffffffffffff1661111284611e0c565b7affffffffffffffffffffffffffffffffffffffffffffffffffffff167b010000000000000000000000000000000000000000000000000000004264ffffffffff160217600e556009548484106111725761116d8382611e71565b611191565b6111918361118c86611184818a612a8b565b859190611893565b611e71565b6009546040805184815260208101889052808201849052606081019290925260808201869052517f9e58b170e0350f4db79237b74fbf8c29c7d19c7c09b71d0f0f8e9316334acaed9181900360a00190a173ffffffffffffffffffffffffffffffffffffffff83163b1561125a578273ffffffffffffffffffffffffffffffffffffffff1663fff6cae96040518163ffffffff1660e01b8152600401600060405180830381600087803b15801561124757600080fd5b505af1925050508015611258575060015b505b600d60009054906101000a900473ffffffffffffffffffffffffffffffffffffffff1673ffffffffffffffffffffffffffffffffffffffff1663fff6cae96040518163ffffffff1660e01b8152600401600060405180830381600087803b1580156112c457600080fd5b505af11580156112d8573d6000803e3d6000fd5b5050505050505b505050565b6112ec611840565b73ffffffffffffffffffffffffffffffffffffffff82166000818152600a602052604080822080547fffffffffffffffffffffffffffffffffffffffffffffffffffffffffffffff001685151590811790915590519092917f4a8bc871bc382f8f05aa4ee5015bd9d5eeafc8334ba96536b463dd2657a64f1591a35050565b834211156113ad576040517f62791302000000000000000000000000000000000000000000000000000000008152600481018590526024015b60405180910390fd5b60007f6e71edae12b1b97f4d1f60370fef10105fa2faae0126114a169c64845d6126c98888886114078c73ffffffffffffffffffffffffffffffffffffffff16600090815260076020526040902080546001810190915590565b60408051602081019690965273ffffffffffffffffffffffffffffffffffffffff94851690860152929091166060840152608083015260a082015260c0810186905260e001604051602081830303815290604052805190602001209050600061146f82611f43565b9050600061147f82878787611f8b565b90508973ffffffffffffffffffffffffffffffffffffffff168173ffffffffffffffffffffffffffffffffffffffff1614611506576040517f4b800e4600000000000000000000000000000000000000000000000000000000815273ffffffffffffffffffffffffffffffffffffffff80831660048301528b1660248201526044016113a4565b6115118a8a8a611581565b50505050505050505050565b611525611840565b73ffffffffffffffffffffffffffffffffffffffff8116611575576040517f1e4fbdf7000000000000000000000000000000000000000000000000000000008152600060048201526024016113a4565b61157e81611d07565b50565b6112df8383836001611fb9565b73ffffffffffffffffffffffffffffffffffffffff8381166000908152600160209081526040808320938616835292905220547fffffffffffffffffffffffffffffffffffffffffffffffffffffffffffffffff81146116575781811015611648576040517ffb8f41b200000000000000000000000000000000000000000000000000000000815273ffffffffffffffffffffffffffffffffffffffff8416600482015260248101829052604481018390526064016113a4565b61165784848484036000611fb9565b50505050565b73ffffffffffffffffffffffffffffffffffffffff83166116ad576040517f96c6fd1e000000000000000000000000000000000000000000000000000000008152600060048201526024016113a4565b73ffffffffffffffffffffffffffffffffffffffff82166116fd576040517fec442f05000000000000000000000000000000000000000000000000000000008152600060048201526024016113a4565b6112df83838361201f565b60003073ffffffffffffffffffffffffffffffffffffffff7f00000000000000000000000000000000000000000000000000000000000000001614801561176e57507f000000000000000000000000000000000000000000000000000000000000000046145b1561179857507f000000000000000000000000000000000000000000000000000000000000000090565b6107f3604080517f8b73c3c69bb8fe3d512ecc4cf759cc79239f7b179b0ffacaa9a75d522b39400f60208201527f0000000000000000000000000000000000000000000000000000000000000000918101919091527f000000000000000000000000000000000000000000000000000000000000000060608201524660808201523060a082015260009060c00160405160208183030381529060405280519060200120905090565b600b5473ffffffffffffffffffffffffffffffffffffffff163314610c2c576040517f118cdaa70000000000000000000000000000000000000000000000000000000081523360048201526024016113a4565b6000838302817fffffffffffffffffffffffffffffffffffffffffffffffffffffffffffffffff85870982811083820303915050806000036118e8578382816118de576118de612a9e565b0492505050610796565b808411611921576040517f227bc15300000000000000000000000000000000000000000000000000000000815260040160405180910390fd5b6000848688096000868103871696879004966002600389028118808a02820302808a02820302808a02820302808a02820302808a02820302808a02909103029181900381900460010186841190950394909402919094039290920491909117919091029150509392505050565b60006107716119b9600e547affffffffffffffffffffffffffffffffffffffffffffffffffffff1690565b6009548491906001612033565b600073ffffffffffffffffffffffffffffffffffffffff8516611a2d576040517f96c6fd1e00000000000000000000000000000000000000000000000000000000815273ffffffffffffffffffffffffffffffffffffffff861660048201526024016113a4565b73ffffffffffffffffffffffffffffffffffffffff8416611a92576040517fec442f0500000000000000000000000000000000000000000000000000000000815273ffffffffffffffffffffffffffffffffffffffff851660048201526024016113a4565b73ffffffffffffffffffffffffffffffffffffffff8516600090815260086020526040902054831115611b475773ffffffffffffffffffffffffffffffffffffffff85166000908152600860205260409020548590611af090610b45565b6040517fe450d38c00000000000000000000000000000000000000000000000000000000815273ffffffffffffffffffffffffffffffffffffffff90921660048301526024820152604481018390526064016113a4565b73ffffffffffffffffffffffffffffffffffffffff85166000908152600a602052604090205460ff16158015611ba3575073ffffffffffffffffffffffffffffffffffffffff84166000908152600a602052604090205460ff16155b8015611bbf5750336000908152600a602052604090205460ff16155b15611c1f573073ffffffffffffffffffffffffffffffffffffffff1663d0dc5c656040518163ffffffff1660e01b8152600401600060405180830381600087803b158015611c0c57600080fd5b505af1925050508015611c1d575060015b505b73ffffffffffffffffffffffffffffffffffffffff851660009081526008602052604081208054859290611c54908490612a8b565b909155505073ffffffffffffffffffffffffffffffffffffffff841660009081526008602052604081208054859290611c8e908490612a78565b925050819055508373ffffffffffffffffffffffffffffffffffffffff168573ffffffffffffffffffffffffffffffffffffffff167fddf252ad1be2c89b69c2b068fc378daa952ba7f163c4a11628f55a4df523b3ef84604051611cf491815260200190565b60405180910390a3506001949350505050565b600b805473ffffffffffffffffffffffffffffffffffffffff8381167fffffffffffffffffffffffff0000000000000000000000000000000000000000831681179093556040519116919082907f8be0079c531659141344cd1fd0a4f28419497f9722a3daafe3b4186f6b6457e090600090a35050565b600061077182612082565b60606107f37f000000000000000000000000000000000000000000000000000000000000000060056120ad565b60606107f37f000000000000000000000000000000000000000000000000000000000000000060066120ad565b60008083830184811015611dfe576000809250925050611e05565b6001925090505b9250929050565b60007affffffffffffffffffffffffffffffffffffffffffffffffffffff821115611e6d576040517f6dfcc65000000000000000000000000000000000000000000000000000000000815260d86004820152602481018390526044016113a4565b5090565b6009546000611e808284611de3565b50905080611f3957611ebb84611eb6847fffffffffffffffffffffffffffffffffffffffffffffffffffffffffffffffff612a8b565b612158565b600c80547fffffffffffffffffffffff00ffffffffffffffffffffffffffffffffffffffff16740100000000000000000000000000000000000000001790556040517f628240a53f7ebe5375e91882d66546bf9e49d01336f63e6afcc71ff6b8cdfa2090611f2c9042815260200190565b60405180910390a1611657565b6116578484612158565b6000610771611f50611708565b836040517f19010000000000000000000000000000000000000000000000000000000000008152600281019290925260228201526042902090565b600080600080611f9d888888886121af565b925092509250611fad82826122a9565b50909695505050505050565b3073ffffffffffffffffffffffffffffffffffffffff1663d0dc5c656040518163ffffffff1660e01b8152600401600060405180830381600087803b15801561200157600080fd5b505af1925050508015612012575060015b50611657848484846123b1565b611657838361202d846107ba565b846119c6565b600080612041868686611893565b905061204c836124f9565b801561206857506000848061206357612063612a9e565b868809115b15610bba57612078600182612a78565b9695505050505050565b73ffffffffffffffffffffffffffffffffffffffff8116600090815260076020526040812054610771565b606060ff83146120c7576120c083612526565b9050610771565b8180546120d3906128b0565b80601f01602080910402602001604051908101604052809291908181526020018280546120ff906128b0565b801561214c5780601f106121215761010080835404028352916020019161214c565b820191906000526020600020905b81548152906001019060200180831161212f57829003601f168201915b50505050509050610771565b73ffffffffffffffffffffffffffffffffffffffff82166000908152600860205260408120805483929061218d908490612a78565b9250508190555080600960008282546121a69190612a78565b90915550505050565b600080807f7fffffffffffffffffffffffffffffff5d576e7357a4501ddfe92f46681b20a08411156121ea575060009150600390508261229f565b604080516000808252602082018084528a905260ff891692820192909252606081018790526080810186905260019060a0016020604051602081039080840390855afa15801561223e573d6000803e3d6000fd5b50506040517fffffffffffffffffffffffffffffffffffffffffffffffffffffffffffffffe0015191505073ffffffffffffffffffffffffffffffffffffffff81166122955750600092506001915082905061229f565b9250600091508190505b9450945094915050565b60008260038111156122bd576122bd612b01565b036122c6575050565b60018260038111156122da576122da612b01565b03612311576040517ff645eedf00000000000000000000000000000000000000000000000000000000815260040160405180910390fd5b600282600381111561232557612325612b01565b0361235f576040517ffce698f7000000000000000000000000000000000000000000000000000000008152600481018290526024016113a4565b600382600381111561237357612373612b01565b036123ad576040517fd78bce0c000000000000000000000000000000000000000000000000000000008152600481018290526024016113a4565b5050565b73ffffffffffffffffffffffffffffffffffffffff8416612401576040517fe602df05000000000000000000000000000000000000000000000000000000008152600060048201526024016113a4565b73ffffffffffffffffffffffffffffffffffffffff8316612451576040517f94280d62000000000000000000000000000000000000000000000000000000008152600060048201526024016113a4565b73ffffffffffffffffffffffffffffffffffffffff80851660009081526001602090815260408083209387168352929052208290558015611657578273ffffffffffffffffffffffffffffffffffffffff168473ffffffffffffffffffffffffffffffffffffffff167f8c5be1e5ebec7d5bd14f71427d1e84f3dd0314c0f7b2291e5b200ac8c7c3b925846040516124eb91815260200190565b60405180910390a350505050565b6000600282600381111561250f5761250f612b01565b6125199190612b30565b60ff166001149050919050565b6060600061253383612565565b604080516020808252818301909252919250600091906020820181803683375050509182525060208101929092525090565b600060ff8216601f811115610771576040517fb3512b0c00000000000000000000000000000000000000000000000000000000815260040160405180910390fd5b6000815180845260005b818110156125cc576020818501810151868301820152016125b0565b5060006020828601015260207fffffffffffffffffffffffffffffffffffffffffffffffffffffffffffffffe0601f83011685010191505092915050565b60208152600061079660208301846125a6565b803573ffffffffffffffffffffffffffffffffffffffff8116811461264157600080fd5b919050565b6000806040838503121561265957600080fd5b6126628361261d565b946020939093013593505050565b60008060006060848603121561268557600080fd5b61268e8461261d565b925061269c6020850161261d565b9150604084013590509250925092565b6000602082840312156126be57600080fd5b5035919050565b6000602082840312156126d757600080fd5b6107968261261d565b600080604083850312156126f357600080fd5b6126fc8361261d565b915061270a6020840161261d565b90509250929050565b60008060006060848603121561272857600080fd5b505081359360208301359350604090920135919050565b7fff00000000000000000000000000000000000000000000000000000000000000881681526000602060e0602084015261277c60e084018a6125a6565b838103604085015261278e818a6125a6565b6060850189905273ffffffffffffffffffffffffffffffffffffffff8816608086015260a0850187905284810360c08601528551808252602080880193509091019060005b818110156127ef578351835292840192918401916001016127d3565b50909c9b505050505050505050505050565b6000806040838503121561281457600080fd5b61281d8361261d565b91506020830135801515811461283257600080fd5b809150509250929050565b600080600080600080600060e0888a03121561285857600080fd5b6128618861261d565b965061286f6020890161261d565b95506040880135945060608801359350608088013560ff8116811461289357600080fd5b9699959850939692959460a0840135945060c09093013592915050565b600181811c908216806128c457607f821691505b6020821081036128fd577f4e487b7100000000000000000000000000000000000000000000000000000000600052602260045260246000fd5b50919050565b7f4e487b7100000000000000000000000000000000000000000000000000000000600052601160045260246000fd5b600181815b8085111561298b57817fffffffffffffffffffffffffffffffffffffffffffffffffffffffffffffffff0482111561297157612971612903565b8085161561297e57918102915b93841c9390800290612937565b509250929050565b6000826129a257506001610771565b816129af57506000610771565b81600181146129c557600281146129cf576129eb565b6001915050610771565b60ff8411156129e0576129e0612903565b50506001821b610771565b5060208310610133831016604e8410600b8410161715612a0e575081810a610771565b612a188383612932565b807fffffffffffffffffffffffffffffffffffffffffffffffffffffffffffffffff04821115612a4a57612a4a612903565b029392505050565b600061079660ff841683612993565b808202811582820484141761077157610771612903565b8082018082111561077157610771612903565b8181038181111561077157610771612903565b7f4e487b7100000000000000000000000000000000000000000000000000000000600052601260045260246000fd5b600082612adc57612adc612a9e565b500490565b60006107968383612993565b600082612afc57612afc612a9e565b500690565b7f4e487b7100000000000000000000000000000000000000000000000000000000600052602160045260246000fd5b600060ff831680612b4357612b43612a9e565b8060ff8416069150509291505056fea2646970667358221220df241f99d8b0a52193b1074504fd062299d040995c19c2138697e5922d84ecfe64736f6c63430008190033","linkReferences":{}},"methodIdentifiers":{"DEBASE_EVERY()":"280cc3d2","DEPLOYED_TIME()":"65017796","DOMAIN_SEPARATOR()":"3644e515","FEES_BASE()":"ece531b0","FEES_STAKING()":"4b457d98","HALVING_EVERY()":"1db6e850","INITIAL_SUPPLY()":"2ff2e9dc","MINIMUM_TOTAL_SUPPLY()":"70fc982d","NB_DEBASE_PER_HALVING()":"b23b36ad","SHARES_PRECISION_FACTOR()":"fda9c947","allowance(address,address)":"dd62ed3e","approve(address,uint256)":"095ea7b3","balanceOf(address)":"70a08231","computeNewState()":"baa83f69","computeSupply()":"7a60e069","decimals()":"313ce567","eip712Domain()":"84b0196e","feesCollector()":"9cf160f6","initialize(address,address)":"485cc955","maxSharesReached()":"db6905ab","name()":"06fdde03","nonces(address)":"7ecebe00","owner()":"8da5cb5b","permit(address,address,uint256,uint256,uint8,bytes32,bytes32)":"d505accf","realBalanceOf(address)":"99a03c70","renounceOwnership()":"715018a6","setBlacklistForUpdateSupply(address,bool)":"d4245ebb","setFeesCollector(address)":"373071f2","setUniswapV2Pair(address)":"a29a6089","sharesOf(address)":"f5eb42dc","sharesToToken(uint256)":"6cf81ec6","sharesToToken(uint256,uint256,uint256)":"5e703fec","symbol()":"95d89b41","tokenToShares(uint256)":"361bb0c1","tokenToShares(uint256,uint256,uint256)":"c53dc757","totalShares()":"3a98ef39","totalSupply()":"18160ddd","transfer(address,uint256)":"a9059cbb","transferFrom(address,address,uint256)":"23b872dd","transferOwnership(address)":"f2fde38b","transferShares(address,uint256)":"8fcb4e5b","transferSharesFrom(address,address,uint256)":"6d780459","uniswapV2Pair()":"49bd5a5e","updateTotalSupply()":"d0dc5c65"},"id":47}