{"abi":[{"type":"constructor","inputs":[{"name":"lpToken","type":"address","internalType":"address"},{"name":"ponzioTheCatAddress","type":"address","internalType":"address"}],"stateMutability":"nonpayable"},{"type":"function","name":"LP_TOKEN","inputs":[],"outputs":[{"name":"","type":"address","internalType":"contract IERC20"}],"stateMutability":"view"},{"type":"function","name":"PONZIO","inputs":[],"outputs":[{"name":"","type":"address","internalType":"contract IPonzioTheCat"}],"stateMutability":"view"},{"type":"function","name":"swap","inputs":[{"name":"amountIn","type":"uint256","internalType":"uint256"},{"name":"amountOutMin","type":"uint256","internalType":"uint256"},{"name":"path","type":"address[]","internalType":"address[]"},{"name":"to","type":"address","internalType":"address"},{"name":"deadline","type":"uint256","internalType":"uint256"}],"outputs":[],"stateMutability":"payable"},{"type":"function","name":"updateSupplyAndAddLiquidity","inputs":[{"name":"amountWETHDesired","type":"uint256","internalType":"uint256"},{"name":"amountPonzioDesired","type":"uint256","internalType":"uint256"},{"name":"amountETHMin","type":"uint256","internalType":"uint256"},{"name":"amountPonzioMin","type":"uint256","internalType":"uint256"},{"name":"to","type":"address","internalType":"address"}],"outputs":[{"name":"amountPonzio_","type":"uint256","internalType":"uint256"},{"name":"amountETH_","type":"uint256","internalType":"uint256"},{"name":"liquidity_","type":"uint256","internalType":"uint256"}],"stateMutability":"payable"},{"type":"error","name":"AddressEmptyCode","inputs":[{"name":"target","type":"address","internalType":"address"}]},{"type":"error","name":"AddressInsufficientBalance","inputs":[{"name":"account","type":"address","internalType":"address"}]},{"type":"error","name":"FailedInnerCall","inputs":[]},{"type":"error","name":"ReentrancyGuardReentrantCall","inputs":[]},{"type":"error","name":"Router_insufficientAmount","inputs":[]},{"type":"error","name":"Router_invalidPath","inputs":[{"name":"path","type":"address[]","internalType":"address[]"}]},{"type":"error","name":"Router_liquidityError","inputs":[]},{"type":"error","name":"Router_refundFailed","inputs":[]},{"type":"error","name":"Router_valueNeeded","inputs":[]},{"type":"error","name":"Router_valueNotNeeded","inputs":[]},{"type":"error","name":"SafeERC20FailedOperation","inputs":[{"name":"token","type":"address","internalType":"address"}]}],"bytecode":{"object":"0x60c060405234801561001057600080fd5b506040516119d03803806119d083398101604081905261002f91610067565b60016000556001600160a01b039182166080521660a05261009a565b80516001600160a01b038116811461006257600080fd5b919050565b6000806040838503121561007a57600080fd5b6100838361004b565b91506100916020840161004b565b90509250929050565b60805160a0516118b161011f6000396000818160f70152818161016a015281816106370152818161090101528181610ae801528181610dfd01528181610e390152610f48015260008181609e015281816108c2015281816109240152818161098e01528181610aa501528181610b0b01528181610b750152610e7a01526118b16000f3fe60806040526004361061003f5760003560e01c806390f11e8414610044578063beff5bf514610059578063bfd9041b1461008c578063d8cbf704146100e5575b600080fd5b610057610052366004611496565b610119565b005b61006c6100673660046115a7565b610628565b604080519384526020840192909252908201526060015b60405180910390f35b34801561009857600080fd5b506100c07f000000000000000000000000000000000000000000000000000000000000000081565b60405173ffffffffffffffffffffffffffffffffffffffff9091168152602001610083565b3480156100f157600080fd5b506100c07f000000000000000000000000000000000000000000000000000000000000000081565b6101216106df565b60028351101561016857826040517fa6e4ba0e00000000000000000000000000000000000000000000000000000000815260040161015f9190611642565b60405180910390fd5b7f000000000000000000000000000000000000000000000000000000000000000073ffffffffffffffffffffffffffffffffffffffff1663d0dc5c656040518163ffffffff1660e01b8152600401600060405180830381600087803b1580156101d057600080fd5b505af11580156101e4573d6000803e3d6000fd5b50505050826000815181106101fb576101fb611655565b602002602001015173ffffffffffffffffffffffffffffffffffffffff1673eeeeeeeeeeeeeeeeeeeeeeeeeeeeeeeeeeeeeeee73ffffffffffffffffffffffffffffffffffffffff160361035f5734600003610283576040517f86a0046900000000000000000000000000000000000000000000000000000000815260040160405180910390fd5b734200000000000000000000000000000000000006836000815181106102ab576102ab611655565b73ffffffffffffffffffffffffffffffffffffffff909216602092830291909101909101526040517fb6f9de95000000000000000000000000000000000000000000000000000000008152734752ba5dbc23f44d87826276bf6fd6b1c372ad249063b6f9de95903490610328908890889088908890600401611684565b6000604051808303818588803b15801561034157600080fd5b505af1158015610355573d6000803e3d6000fd5b5050505050610617565b3415610397576040517f7c7e817900000000000000000000000000000000000000000000000000000000815260040160405180910390fd5b6103de333087866000815181106103b0576103b0611655565b602002602001015173ffffffffffffffffffffffffffffffffffffffff16610722909392919063ffffffff16565b610437734752ba5dbc23f44d87826276bf6fd6b1c372ad24868560008151811061040a5761040a611655565b602002602001015173ffffffffffffffffffffffffffffffffffffffff166107b19092919063ffffffff16565b826001845161044691906116f5565b8151811061045657610456611655565b602002602001015173ffffffffffffffffffffffffffffffffffffffff1673eeeeeeeeeeeeeeeeeeeeeeeeeeeeeeeeeeeeeeee73ffffffffffffffffffffffffffffffffffffffff160361058c5773420000000000000000000000000000000000000683600185516104c891906116f5565b815181106104d8576104d8611655565b73ffffffffffffffffffffffffffffffffffffffff909216602092830291909101909101526040517f791ac947000000000000000000000000000000000000000000000000000000008152734752ba5dbc23f44d87826276bf6fd6b1c372ad249063791ac947906105559088908890889088908890600401611708565b600060405180830381600087803b15801561056f57600080fd5b505af1158015610583573d6000803e3d6000fd5b50505050610617565b6040517f5c11d795000000000000000000000000000000000000000000000000000000008152734752ba5dbc23f44d87826276bf6fd6b1c372ad2490635c11d795906105e49088908890889088908890600401611708565b600060405180830381600087803b1580156105fe57600080fd5b505af1158015610612573d6000803e3d6000fd5b505050505b6106216001600055565b5050505050565b60008060006106356106df565b7f000000000000000000000000000000000000000000000000000000000000000073ffffffffffffffffffffffffffffffffffffffff1663d0dc5c656040518163ffffffff1660e01b8152600401600060405180830381600087803b15801561069d57600080fd5b505af11580156106b1573d6000803e3d6000fd5b505050506106c3888888888833610889565b919450925090506106d46001600055565b955095509592505050565b60026000540361071b576040517f3ee5aeb500000000000000000000000000000000000000000000000000000000815260040160405180910390fd5b6002600055565b60405173ffffffffffffffffffffffffffffffffffffffff84811660248301528381166044830152606482018390526107ab9186918216906323b872dd906084015b604051602081830303815290604052915060e01b6020820180517bffffffffffffffffffffffffffffffffffffffffffffffffffffffff8381831617835250505050610c83565b50505050565b6040805173ffffffffffffffffffffffffffffffffffffffff8416602482015260448082018490528251808303909101815260649091019091526020810180517bffffffffffffffffffffffffffffffffffffffffffffffffffffffff167f095ea7b30000000000000000000000000000000000000000000000000000000017905261083d8482610d1e565b6107ab5760405173ffffffffffffffffffffffffffffffffffffffff84811660248301526000604483015261087f91869182169063095ea7b390606401610764565b6107ab8482610c83565b600080600034600003610a02576108a2888a888a610de2565b90935091506108e7734200000000000000000000000000000000000006857f000000000000000000000000000000000000000000000000000000000000000085610722565b61094973ffffffffffffffffffffffffffffffffffffffff7f000000000000000000000000000000000000000000000000000000000000000016857f000000000000000000000000000000000000000000000000000000000000000086610722565b6040517f6a62784200000000000000000000000000000000000000000000000000000000815273ffffffffffffffffffffffffffffffffffffffff86811660048301527f00000000000000000000000000000000000000000000000000000000000000001690636a627842906024016020604051808303816000875af11580156109d7573d6000803e3d6000fd5b505050506040513d601f19601f820116820180604052508101906109fb9190611751565b9050610c77565b610a0e8834888a610de2565b809350819450505073420000000000000000000000000000000000000673ffffffffffffffffffffffffffffffffffffffff1663d0e30db0836040518263ffffffff1660e01b81526004016000604051808303818588803b158015610a7257600080fd5b505af1158015610a86573d6000803e3d6000fd5b50610ace935073420000000000000000000000000000000000000692507f00000000000000000000000000000000000000000000000000000000000000009150859050611083565b610b3073ffffffffffffffffffffffffffffffffffffffff7f000000000000000000000000000000000000000000000000000000000000000016857f000000000000000000000000000000000000000000000000000000000000000086610722565b6040517f6a62784200000000000000000000000000000000000000000000000000000000815273ffffffffffffffffffffffffffffffffffffffff86811660048301527f00000000000000000000000000000000000000000000000000000000000000001690636a627842906024016020604051808303816000875af1158015610bbe573d6000803e3d6000fd5b505050506040513d601f19601f82011682018060405250810190610be29190611751565b905081341115610c7757600033610bf984346116f5565b604051600081818185875af1925050503d8060008114610c35576040519150601f19603f3d011682016040523d82523d6000602084013e610c3a565b606091505b5050905080610c75576040517fb2b0b2e000000000000000000000000000000000000000000000000000000000815260040160405180910390fd5b505b96509650969350505050565b6000610ca573ffffffffffffffffffffffffffffffffffffffff8416836110c1565b90508051600014158015610cca575080806020019051810190610cc8919061176a565b155b15610d19576040517f5274afe700000000000000000000000000000000000000000000000000000000815273ffffffffffffffffffffffffffffffffffffffff8416600482015260240161015f565b505050565b60008060008473ffffffffffffffffffffffffffffffffffffffff1684604051610d48919061178c565b6000604051808303816000865af19150503d8060008114610d85576040519150601f19603f3d011682016040523d82523d6000602084013e610d8a565b606091505b5091509150818015610db4575080511580610db4575080806020019051810190610db4919061176a565b8015610dd7575060008573ffffffffffffffffffffffffffffffffffffffff163b115b925050505b92915050565b6000808073ffffffffffffffffffffffffffffffffffffffff7f00000000000000000000000000000000000000000000000000000000000000001673420000000000000000000000000000000000000610610e5d577f0000000000000000000000000000000000000000000000000000000000000000610e73565b7342000000000000000000000000000000000000065b90506000807f000000000000000000000000000000000000000000000000000000000000000073ffffffffffffffffffffffffffffffffffffffff16630902f1ac6040518163ffffffff1660e01b8152600401606060405180830381865afa158015610ee3573d6000803e3d6000fd5b505050506040513d601f19601f82011682018060405250810190610f0791906117d9565b506dffffffffffffffffffffffffffff1691506dffffffffffffffffffffffffffff1691506000808473ffffffffffffffffffffffffffffffffffffffff167f000000000000000000000000000000000000000000000000000000000000000073ffffffffffffffffffffffffffffffffffffffff1614610f89578284610f8c565b83835b915091506000610f9d8c84846110d6565b90508a8111610feb5780891115610fe0576040517f1771195e00000000000000000000000000000000000000000000000000000000815260040160405180910390fd5b8b9750955085611074565b6000610ff88c84866110d6565b90508c811115611034576040517f1d52f7db00000000000000000000000000000000000000000000000000000000815260040160405180910390fd5b808b111561106e576040517f1771195e00000000000000000000000000000000000000000000000000000000815260040160405180910390fd5b97508a96505b50505050505094509492505050565b60405173ffffffffffffffffffffffffffffffffffffffff838116602483015260448201839052610d1991859182169063a9059cbb90606401610764565b60606110cf83836000611220565b9392505050565b6000808411611167576040517f08c379a000000000000000000000000000000000000000000000000000000000815260206004820152602560248201527f556e697377617056324c6962726172793a20494e53554646494349454e545f4160448201527f4d4f554e54000000000000000000000000000000000000000000000000000000606482015260840161015f565b6000831180156111775750600082115b611203576040517f08c379a000000000000000000000000000000000000000000000000000000000815260206004820152602860248201527f556e697377617056324c6962726172793a20494e53554646494349454e545f4c60448201527f4951554944495459000000000000000000000000000000000000000000000000606482015260840161015f565b8261120e85846112e3565b6112189190611829565b949350505050565b60608147101561125e576040517fcd78605900000000000000000000000000000000000000000000000000000000815230600482015260240161015f565b6000808573ffffffffffffffffffffffffffffffffffffffff168486604051611287919061178c565b60006040518083038185875af1925050503d80600081146112c4576040519150601f19603f3d011682016040523d82523d6000602084013e6112c9565b606091505b50915091506112d986838361136d565b9695505050505050565b6000811580611307575082826112f98183611864565b92506113059083611829565b145b610ddc576040517f08c379a000000000000000000000000000000000000000000000000000000000815260206004820152601460248201527f64732d6d6174682d6d756c2d6f766572666c6f77000000000000000000000000604482015260640161015f565b6060826113825761137d826113fc565b6110cf565b81511580156113a6575073ffffffffffffffffffffffffffffffffffffffff84163b155b156113f5576040517f9996b31500000000000000000000000000000000000000000000000000000000815273ffffffffffffffffffffffffffffffffffffffff8516600482015260240161015f565b50806110cf565b80511561140c5780518082602001fd5b6040517f1425ea4200000000000000000000000000000000000000000000000000000000815260040160405180910390fd5b7f4e487b7100000000000000000000000000000000000000000000000000000000600052604160045260246000fd5b803573ffffffffffffffffffffffffffffffffffffffff8116811461149157600080fd5b919050565b600080600080600060a086880312156114ae57600080fd5b853594506020808701359450604087013567ffffffffffffffff808211156114d557600080fd5b818901915089601f8301126114e957600080fd5b8135818111156114fb576114fb61143e565b8060051b6040517fffffffffffffffffffffffffffffffffffffffffffffffffffffffffffffffe0603f8301168101818110858211171561153e5761153e61143e565b60405291825284820192508381018501918c83111561155c57600080fd5b938501935b82851015611581576115728561146d565b84529385019392850192611561565b8098505050505050506115966060870161146d565b949793965091946080013592915050565b600080600080600060a086880312156115bf57600080fd5b853594506020860135935060408601359250606086013591506115e46080870161146d565b90509295509295909350565b60008151808452602080850194506020840160005b8381101561163757815173ffffffffffffffffffffffffffffffffffffffff1687529582019590820190600101611605565b509495945050505050565b6020815260006110cf60208301846115f0565b7f4e487b7100000000000000000000000000000000000000000000000000000000600052603260045260246000fd5b84815260806020820152600061169d60808301866115f0565b73ffffffffffffffffffffffffffffffffffffffff949094166040830152506060015292915050565b7f4e487b7100000000000000000000000000000000000000000000000000000000600052601160045260246000fd5b81810381811115610ddc57610ddc6116c6565b85815284602082015260a06040820152600061172760a08301866115f0565b73ffffffffffffffffffffffffffffffffffffffff94909416606083015250608001529392505050565b60006020828403121561176357600080fd5b5051919050565b60006020828403121561177c57600080fd5b815180151581146110cf57600080fd5b6000825160005b818110156117ad5760208186018101518583015201611793565b506000920191825250919050565b80516dffffffffffffffffffffffffffff8116811461149157600080fd5b6000806000606084860312156117ee57600080fd5b6117f7846117bb565b9250611805602085016117bb565b9150604084015163ffffffff8116811461181e57600080fd5b809150509250925092565b60008261185f577f4e487b7100000000000000000000000000000000000000000000000000000000600052601260045260246000fd5b500490565b8082028115828204841417610ddc57610ddc6116c656fea2646970667358221220d7329d44c889ae2f8d64904471beeb752f02a2cf81adaf63642f950207328bb164736f6c63430008190033","linkReferences":{}},"methodIdentifiers":{"LP_TOKEN()":"bfd9041b","PONZIO()":"d8cbf704","swap(uint256,uint256,address[],address,uint256)":"90f11e84","updateSupplyAndAddLiquidity(uint256,uint256,uint256,uint256,address)":"beff5bf5"},"id":44}