{"abi":[{"type":"constructor","inputs":[{"name":"lpToken","type":"address","internalType":"address"},{"name":"wrappedPonzioTheCatAddress","type":"address","internalType":"address"}],"stateMutability":"nonpayable"},{"type":"receive","stateMutability":"payable"},{"type":"function","name":"LP_TOKEN","inputs":[],"outputs":[{"name":"","type":"address","internalType":"contract IERC20"}],"stateMutability":"view"},{"type":"function","name":"PONZIO","inputs":[],"outputs":[{"name":"","type":"address","internalType":"contract IPonzioTheCat"}],"stateMutability":"view"},{"type":"function","name":"PRECISION_FACTOR","inputs":[],"outputs":[{"name":"","type":"uint256","internalType":"uint256"}],"stateMutability":"view"},{"type":"function","name":"WRAPPED_PONZIO","inputs":[],"outputs":[{"name":"","type":"address","internalType":"contract IWrappedPonzioTheCat"}],"stateMutability":"view"},{"type":"function","name":"deposit","inputs":[{"name":"amount","type":"uint256","internalType":"uint256"},{"name":"recipient","type":"address","internalType":"address"}],"outputs":[],"stateMutability":"nonpayable"},{"type":"function","name":"emergencyWithdraw","inputs":[],"outputs":[],"stateMutability":"nonpayable"},{"type":"function","name":"harvest","inputs":[{"name":"recipient","type":"address","internalType":"address"}],"outputs":[],"stateMutability":"nonpayable"},{"type":"function","name":"pendingRewards","inputs":[{"name":"userAddr","type":"address","internalType":"address"}],"outputs":[{"name":"pendingRewards_","type":"uint256","internalType":"uint256"}],"stateMutability":"view"},{"type":"function","name":"reinvest","inputs":[{"name":"amountPonzioMin","type":"uint256","internalType":"uint256"},{"name":"amountEthMin","type":"uint256","internalType":"uint256"}],"outputs":[],"stateMutability":"payable"},{"type":"function","name":"skim","inputs":[],"outputs":[],"stateMutability":"nonpayable"},{"type":"function","name":"sync","inputs":[],"outputs":[],"stateMutability":"nonpayable"},{"type":"function","name":"userInfo","inputs":[{"name":"userAddr","type":"address","internalType":"address"}],"outputs":[{"name":"","type":"tuple","internalType":"struct IStake.UserInfo","components":[{"name":"amount","type":"uint256","internalType":"uint256"},{"name":"rewardDebt","type":"uint256","internalType":"uint256"}]}],"stateMutability":"view"},{"type":"function","name":"withdraw","inputs":[{"name":"amount","type":"uint256","internalType":"uint256"},{"name":"recipient","type":"address","internalType":"address"}],"outputs":[],"stateMutability":"nonpayable"},{"type":"event","name":"ClaimReward","inputs":[{"name":"user","type":"address","indexed":true,"internalType":"address"},{"name":"recipient","type":"address","indexed":false,"internalType":"address"},{"name":"reward","type":"uint256","indexed":false,"internalType":"uint256"}],"anonymous":false},{"type":"event","name":"Deposit","inputs":[{"name":"recipient","type":"address","indexed":true,"internalType":"address"},{"name":"depositBy","type":"address","indexed":false,"internalType":"address"},{"name":"amount","type":"uint256","indexed":false,"internalType":"uint256"}],"anonymous":false},{"type":"event","name":"EmergencyWithdraw","inputs":[{"name":"user","type":"address","indexed":true,"internalType":"address"},{"name":"amount","type":"uint256","indexed":false,"internalType":"uint256"}],"anonymous":false},{"type":"event","name":"Skim","inputs":[{"name":"user","type":"address","indexed":true,"internalType":"address"},{"name":"amount","type":"uint256","indexed":false,"internalType":"uint256"}],"anonymous":false},{"type":"event","name":"Withdraw","inputs":[{"name":"user","type":"address","indexed":true,"internalType":"address"},{"name":"recipient","type":"address","indexed":false,"internalType":"address"},{"name":"amount","type":"uint256","indexed":false,"internalType":"uint256"}],"anonymous":false},{"type":"error","name":"AddressEmptyCode","inputs":[{"name":"target","type":"address","internalType":"address"}]},{"type":"error","name":"AddressInsufficientBalance","inputs":[{"name":"account","type":"address","internalType":"address"}]},{"type":"error","name":"FailedInnerCall","inputs":[]},{"type":"error","name":"MathOverflowedMulDiv","inputs":[]},{"type":"error","name":"ReentrancyGuardReentrantCall","inputs":[]},{"type":"error","name":"SafeERC20FailedOperation","inputs":[{"name":"token","type":"address","internalType":"address"}]},{"type":"error","name":"Stake_depositZeroAmount","inputs":[]},{"type":"error","name":"Stake_noPendingRewards","inputs":[]},{"type":"error","name":"Stake_refundFailed","inputs":[]},{"type":"error","name":"Stake_valueNeeded","inputs":[]},{"type":"error","name":"Stake_withdrawTooHigh","inputs":[{"name":"withdrawAmount","type":"uint256","internalType":"uint256"},{"name":"stakedAmount","type":"uint256","internalType":"uint256"}]},{"type":"error","name":"Stake_withdrawZeroAmount","inputs":[]}],"bytecode":{"object":"0x60e060405234801561001057600080fd5b506040516121e13803806121e183398101604081905261002f916100d4565b60016000556001600160a01b03808316608052811660c0819052604080516338d52e0f60e01b815290516338d52e0f916004808201926020929091908290030181865afa158015610084573d6000803e3d6000fd5b505050506040513d601f19601f820116820180604052508101906100a8919061010e565b6001600160a01b031660a052506101329050565b6001600160a01b03811681146100d157600080fd5b50565b600080604083850312156100e757600080fd5b82516100f2816100bc565b6020840151909250610103816100bc565b809150509250929050565b60006020828403121561012057600080fd5b815161012b816100bc565b9392505050565b60805160a05160c051611fd861020960003960008181610293015281816106ee015281816107cb01528181610f7901528181611052015281816110cc0152818161140c01526115b40152600081816102e30152818161054f015281816105fd015281816108cb015281816109c901528181610ac401528181610b6401528181610be701528181610ceb01528181610eae01528181610fa3015281816110300152611a3d01526000818161023a015281816103d60152818161048501528181610e24015281816112c401526118bb0152611fd86000f3fe6080604052600436106100d55760003560e01c80636e553f651161007f578063ccd34cd511610059578063ccd34cd5146102b5578063d8cbf704146102d1578063db2e21bc14610305578063fff6cae91461031a57600080fd5b80636e553f6514610208578063bfd9041b14610228578063c317a0261461028157600080fd5b80631dd19cb4116100b05780631dd19cb4146101b257806331d7a262146101c75780634458bbc0146101f557600080fd5b8062f714ce146100e15780630e5c011e146101035780631959a0021461012357600080fd5b366100dc57005b600080fd5b3480156100ed57600080fd5b506101016100fc366004611dfa565b61032f565b005b34801561010f57600080fd5b5061010161011e366004611e2a565b61034f565b34801561012f57600080fd5b5061019261013e366004611e2a565b60408051808201909152600080825260208201525073ffffffffffffffffffffffffffffffffffffffff16600090815260016020818152604092839020835180850190945280548452909101549082015290565b604080518251815260209283015192810192909252015b60405180910390f35b3480156101be57600080fd5b50610101610396565b3480156101d357600080fd5b506101e76101e2366004611e2a565b6104f9565b6040519081526020016101a9565b610101610203366004611e47565b610858565b34801561021457600080fd5b50610101610223366004611dfa565b610db4565b34801561023457600080fd5b5061025c7f000000000000000000000000000000000000000000000000000000000000000081565b60405173ffffffffffffffffffffffffffffffffffffffff90911681526020016101a9565b34801561028d57600080fd5b5061025c7f000000000000000000000000000000000000000000000000000000000000000081565b3480156102c157600080fd5b506101e7670de0b6b3a764000081565b3480156102dd57600080fd5b5061025c7f000000000000000000000000000000000000000000000000000000000000000081565b34801561031157600080fd5b50610101610dc7565b34801561032657600080fd5b50610101610e7d565b61033761114e565b6103418282611191565b61034b6001600055565b5050565b61035761114e565b3360008181526001602081815260409283902083518085019094528054845290910154908201526103889183611342565b506103936001600055565b50565b61039e61114e565b600480546040517f70a082310000000000000000000000000000000000000000000000000000000081523092810192909252906000907f000000000000000000000000000000000000000000000000000000000000000073ffffffffffffffffffffffffffffffffffffffff16906370a0823190602401602060405180830381865afa158015610432573d6000803e3d6000fd5b505050506040513d601f19601f820116820180604052508101906104569190611e69565b9050818111156104eb576104ac3361046e8484611eb1565b73ffffffffffffffffffffffffffffffffffffffff7f00000000000000000000000000000000000000000000000000000000000000001691906114de565b337f5e99aaf6d3588fb2497fde044168e8c046704a3223559cfe107f8f94b42cefdd6104d88484611eb1565b6040519081526020015b60405180910390a25b50506104f76001600055565b565b73ffffffffffffffffffffffffffffffffffffffff8116600090815260016020818152604080842081518083019092528054808352930154918101919091529082036105485750600092915050565b60008060007f000000000000000000000000000000000000000000000000000000000000000073ffffffffffffffffffffffffffffffffffffffff1663baa83f696040518163ffffffff1660e01b8152600401606060405180830381865afa1580156105b8573d6000803e3d6000fd5b505050506040513d601f19601f820116820180604052508101906105dc9190611ec4565b92509250925060003073ffffffffffffffffffffffffffffffffffffffff167f000000000000000000000000000000000000000000000000000000000000000073ffffffffffffffffffffffffffffffffffffffff16639cf160f66040518163ffffffff1660e01b8152600401602060405180830381865afa158015610666573d6000803e3d6000fd5b505050506040513d601f19601f8201168201806040525081019061068a9190611ef2565b73ffffffffffffffffffffffffffffffffffffffff161480156106ac57508115155b15610771576040517f0d8a39b60000000000000000000000000000000000000000000000000000000081526004810183905260248101859052604481018490527f000000000000000000000000000000000000000000000000000000000000000073ffffffffffffffffffffffffffffffffffffffff1690630d8a39b690606401602060405180830381865afa15801561074a573d6000803e3d6000fd5b505050506040513d601f19601f8201168201806040525081019061076e9190611e69565b90505b600061077c82611564565b509050600061078b878361167d565b6040517f5d7d13160000000000000000000000000000000000000000000000000000000081526004810182905260248101889052604481018790529091507f000000000000000000000000000000000000000000000000000000000000000073ffffffffffffffffffffffffffffffffffffffff1690635d7d131690606401602060405180830381865afa158015610827573d6000803e3d6000fd5b505050506040513d601f19601f8201168201806040525081019061084b9190611e69565b9998505050505050505050565b61086061114e565b3460000361089a576040517fcd0bb96b00000000000000000000000000000000000000000000000000000000815260040160405180910390fd5b6040517f70a082310000000000000000000000000000000000000000000000000000000081523060048201526000907f000000000000000000000000000000000000000000000000000000000000000073ffffffffffffffffffffffffffffffffffffffff16906370a0823190602401602060405180830381865afa158015610927573d6000803e3d6000fd5b505050506040513d601f19601f8201168201806040525081019061094b9190611e69565b336000818152600160208181526040928390208351808501909452805484529091015490820152919250610980919030611342565b506040517f70a08231000000000000000000000000000000000000000000000000000000008152306004820152600090829073ffffffffffffffffffffffffffffffffffffffff7f000000000000000000000000000000000000000000000000000000000000000016906370a0823190602401602060405180830381865afa158015610a10573d6000803e3d6000fd5b505050506040513d601f19601f82011682018060405250810190610a349190611e69565b610a3e9190611eb1565b905080600003610a7a576040517f73ac449a00000000000000000000000000000000000000000000000000000000815260040160405180910390fd5b6040517fdd62ed3e000000000000000000000000000000000000000000000000000000008152306004820152734752ba5dbc23f44d87826276bf6fd6b1c372ad24602482015281907f000000000000000000000000000000000000000000000000000000000000000073ffffffffffffffffffffffffffffffffffffffff169063dd62ed3e90604401602060405180830381865afa158015610b20573d6000803e3d6000fd5b505050506040513d601f19601f82011682018060405250810190610b449190611e69565b1015610bbf57610bbf73ffffffffffffffffffffffffffffffffffffffff7f000000000000000000000000000000000000000000000000000000000000000016734752ba5dbc23f44d87826276bf6fd6b1c372ad247fffffffffffffffffffffffffffffffffffffffffffffffffffffffffffffffff6116a5565b6040517ff305d7190000000000000000000000000000000000000000000000000000000081527f000000000000000000000000000000000000000000000000000000000000000073ffffffffffffffffffffffffffffffffffffffff1660048201526024810182905260448101859052606481018490523060848201524260a482015260009081908190734752ba5dbc23f44d87826276bf6fd6b1c372ad249063f305d71990349060c40160606040518083038185885af1158015610c88573d6000803e3d6000fd5b50505050506040513d601f19601f82011682018060405250810190610cad9190611ec4565b925092509250610cbe813330611783565b83831015610d1257610d1233610cd48587611eb1565b73ffffffffffffffffffffffffffffffffffffffff7f00000000000000000000000000000000000000000000000000000000000000001691906114de565b34821015610da557600033610d278434611eb1565b604051600081818185875af1925050503d8060008114610d63576040519150601f19603f3d011682016040523d82523d6000602084013e610d68565b606091505b5050905080610da3576040517fe8a7f16c00000000000000000000000000000000000000000000000000000000815260040160405180910390fd5b505b505050505061034b6001600055565b610dbc61114e565b610341828233611783565b610dcf61114e565b336000908152600160205260409020805480156104eb5760008083556001830181905560048054839290610e04908490611eb1565b90915550610e4b905073ffffffffffffffffffffffffffffffffffffffff7f00000000000000000000000000000000000000000000000000000000000000001633836114de565b60405181815233907f5fafa99d0643513820be26656b45130b01e1c03062e1266bf36f88cbd3bd9695906020016104e2565b6040517f70a082310000000000000000000000000000000000000000000000000000000081523060048201526000907f000000000000000000000000000000000000000000000000000000000000000073ffffffffffffffffffffffffffffffffffffffff16906370a0823190602401602060405180830381865afa158015610f0a573d6000803e3d6000fd5b505050506040513d601f19601f82011682018060405250810190610f2e9190611e69565b90508015610393576040517fdd62ed3e00000000000000000000000000000000000000000000000000000000815230600482015273ffffffffffffffffffffffffffffffffffffffff7f00000000000000000000000000000000000000000000000000000000000000008116602483015282917f00000000000000000000000000000000000000000000000000000000000000009091169063dd62ed3e90604401602060405180830381865afa158015610fec573d6000803e3d6000fd5b505050506040513d601f19601f820116820180604052508101906110109190611e69565b10156110975761109773ffffffffffffffffffffffffffffffffffffffff7f0000000000000000000000000000000000000000000000000000000000000000167f00000000000000000000000000000000000000000000000000000000000000007fffffffffffffffffffffffffffffffffffffffffffffffffffffffffffffffff6116a5565b6040517f13bac820000000000000000000000000000000000000000000000000000000008152600481018290523060248201527f000000000000000000000000000000000000000000000000000000000000000073ffffffffffffffffffffffffffffffffffffffff16906313bac820906044016020604051808303816000875af115801561112a573d6000803e3d6000fd5b505050506040513d601f19601f8201168201806040525081019061034b9190611e69565b60026000540361118a576040517f3ee5aeb500000000000000000000000000000000000000000000000000000000815260040160405180910390fd5b6002600055565b3360009081526001602081815260409283902083518085019094528054808552920154908301528311156112075780516040517fe8b980630000000000000000000000000000000000000000000000000000000081526111fe918591600401918252602082015260400190565b60405180910390fd5b82600003611241576040517f4adec15c00000000000000000000000000000000000000000000000000000000815260040160405180910390fd5b600061124e823385611342565b825185900380845290915061126c9082670de0b6b3a764000061193d565b6020808401918252336000908152600191829052604081208551815592519290910191909155600480548692906112a4908490611eb1565b909155506112eb905073ffffffffffffffffffffffffffffffffffffffff7f00000000000000000000000000000000000000000000000000000000000000001684866114de565b6040805173ffffffffffffffffffffffffffffffffffffffff851681526020810186905233917f9b1bfa7fa9ee420a16e124f794c35ac9f90472acc99140eb2f6447c714cad8eb910160405180910390a250505050565b600061134c611a38565b508451909150156114d7576000611363858361167d565b905080156114d5576003548082111561137a578091505b816003600082825461138c9190611eb1565b909155505085516113a69084670de0b6b3a764000061193d565b73ffffffffffffffffffffffffffffffffffffffff86811660009081526001602081905260408083209091019390935591517f7647691d0000000000000000000000000000000000000000000000000000000081526004810185905286821660248201527f000000000000000000000000000000000000000000000000000000000000000090911690637647691d906044016020604051808303816000875af1158015611457573d6000803e3d6000fd5b505050506040513d601f19601f8201168201806040525081019061147b9190611e69565b6040805173ffffffffffffffffffffffffffffffffffffffff888116825260208201849052929350918816917f7e77f685b38c861064cb08f2776eb5dfd3c82f652ed9f21221b8c53b75628e51910160405180910390a250505b505b9392505050565b60405173ffffffffffffffffffffffffffffffffffffffff83811660248301526044820183905261155f91859182169063a9059cbb906064015b604051602081830303815290604052915060e01b6020820180517bffffffffffffffffffffffffffffffffffffffffffffffffffffffff8381831617835250505050611ad8565b505050565b6004546000908190808203611583576002546003549250925050915091565b6040517f70a082310000000000000000000000000000000000000000000000000000000081523060048201526000907f000000000000000000000000000000000000000000000000000000000000000073ffffffffffffffffffffffffffffffffffffffff16906370a0823190602401602060405180830381865afa158015611610573d6000803e3d6000fd5b505050506040513d601f19601f820116820180604052508101906116349190611e69565b90506116408582611f0f565b9050809250611667670de0b6b3a764000083600354846116609190611eb1565b919061193d565b6002546116749190611f0f565b93505050915091565b602082015182516000919061169b9084670de0b6b3a764000061193d565b6114d79190611eb1565b6040805173ffffffffffffffffffffffffffffffffffffffff8416602482015260448082018490528251808303909101815260649091019091526020810180517bffffffffffffffffffffffffffffffffffffffffffffffffffffffff167f095ea7b3000000000000000000000000000000000000000000000000000000001790526117318482611b6e565b61177d5760405173ffffffffffffffffffffffffffffffffffffffff84811660248301526000604483015261177391869182169063095ea7b390606401611518565b61177d8482611ad8565b50505050565b826000036117bd576040517fbfb233cb00000000000000000000000000000000000000000000000000000000815260040160405180910390fd5b73ffffffffffffffffffffffffffffffffffffffff82166000908152600160208181526040808420815180830190925280548252909201549082015290611805828580611342565b905084826000018181516118199190611f0f565b90525081516118319082670de0b6b3a764000061193d565b602080840191825273ffffffffffffffffffffffffffffffffffffffff861660009081526001918290526040812085518155925192909101919091556004805487929061187f908490611f0f565b909155505073ffffffffffffffffffffffffffffffffffffffff831630146118e3576118e373ffffffffffffffffffffffffffffffffffffffff7f000000000000000000000000000000000000000000000000000000000000000016843088611c32565b6040805173ffffffffffffffffffffffffffffffffffffffff8581168252602082018890528616917f5548c837ab068cf56a2c2479df0882a4922fd203edb7517321831d95078c5f62910160405180910390a25050505050565b6000838302817fffffffffffffffffffffffffffffffffffffffffffffffffffffffffffffffff85870982811083820303915050806000036119925783828161198857611988611f22565b04925050506114d7565b8084116119cb576040517f227bc15300000000000000000000000000000000000000000000000000000000815260040160405180910390fd5b6000848688096000868103871696879004966002600389028118808a02820302808a02820302808a02820302808a02820302808a02820302808a02909103029181900381900460010186841190950394909402919094039290920491909117919091029150509392505050565b6000807f000000000000000000000000000000000000000000000000000000000000000073ffffffffffffffffffffffffffffffffffffffff1663d0dc5c656040518163ffffffff1660e01b8152600401600060405180830381600087803b158015611aa357600080fd5b505af1158015611ab7573d6000803e3d6000fd5b50505050611ac56000611564565b6002829055600381905590939092509050565b6000611afa73ffffffffffffffffffffffffffffffffffffffff841683611c78565b90508051600014158015611b1f575080806020019051810190611b1d9190611f51565b155b1561155f576040517f5274afe700000000000000000000000000000000000000000000000000000000815273ffffffffffffffffffffffffffffffffffffffff841660048201526024016111fe565b60008060008473ffffffffffffffffffffffffffffffffffffffff1684604051611b989190611f73565b6000604051808303816000865af19150503d8060008114611bd5576040519150601f19603f3d011682016040523d82523d6000602084013e611bda565b606091505b5091509150818015611c04575080511580611c04575080806020019051810190611c049190611f51565b8015611c27575060008573ffffffffffffffffffffffffffffffffffffffff163b115b925050505b92915050565b60405173ffffffffffffffffffffffffffffffffffffffff848116602483015283811660448301526064820183905261177d9186918216906323b872dd90608401611518565b60606114d783836000846000808573ffffffffffffffffffffffffffffffffffffffff168486604051611cab9190611f73565b60006040518083038185875af1925050503d8060008114611ce8576040519150601f19603f3d011682016040523d82523d6000602084013e611ced565b606091505b5091509150611cfd868383611d07565b9695505050505050565b606082611d1c57611d1782611d96565b6114d7565b8151158015611d40575073ffffffffffffffffffffffffffffffffffffffff84163b155b15611d8f576040517f9996b31500000000000000000000000000000000000000000000000000000000815273ffffffffffffffffffffffffffffffffffffffff851660048201526024016111fe565b50806114d7565b805115611da65780518082602001fd5b6040517f1425ea4200000000000000000000000000000000000000000000000000000000815260040160405180910390fd5b73ffffffffffffffffffffffffffffffffffffffff8116811461039357600080fd5b60008060408385031215611e0d57600080fd5b823591506020830135611e1f81611dd8565b809150509250929050565b600060208284031215611e3c57600080fd5b81356114d781611dd8565b60008060408385031215611e5a57600080fd5b50508035926020909101359150565b600060208284031215611e7b57600080fd5b5051919050565b7f4e487b7100000000000000000000000000000000000000000000000000000000600052601160045260246000fd5b81810381811115611c2c57611c2c611e82565b600080600060608486031215611ed957600080fd5b8351925060208401519150604084015190509250925092565b600060208284031215611f0457600080fd5b81516114d781611dd8565b80820180821115611c2c57611c2c611e82565b7f4e487b7100000000000000000000000000000000000000000000000000000000600052601260045260246000fd5b600060208284031215611f6357600080fd5b815180151581146114d757600080fd5b6000825160005b81811015611f945760208186018101518583015201611f7a565b50600092019182525091905056fea264697066735822122058473660cdd6b162a625712270b9174484fe7db6d0744a58fd8142a65c67152a64736f6c63430008190033","linkReferences":{}},"methodIdentifiers":{"LP_TOKEN()":"bfd9041b","PONZIO()":"d8cbf704","PRECISION_FACTOR()":"ccd34cd5","WRAPPED_PONZIO()":"c317a026","deposit(uint256,address)":"6e553f65","emergencyWithdraw()":"db2e21bc","harvest(address)":"0e5c011e","pendingRewards(address)":"31d7a262","reinvest(uint256,uint256)":"4458bbc0","skim()":"1dd19cb4","sync()":"fff6cae9","userInfo(address)":"1959a002","withdraw(uint256,address)":"00f714ce"},"id":48}