{"abi":[{"type":"constructor","inputs":[{"name":"token","type":"address","internalType":"contract IBaseMillionCat"}],"stateMutability":"nonpayable"},{"type":"function","name":"DOMAIN_SEPARATOR","inputs":[],"outputs":[{"name":"","type":"bytes32","internalType":"bytes32"}],"stateMutability":"view"},{"type":"function","name":"allowance","inputs":[{"name":"owner","type":"address","internalType":"address"},{"name":"spender","type":"address","internalType":"address"}],"outputs":[{"name":"","type":"uint256","internalType":"uint256"}],"stateMutability":"view"},{"type":"function","name":"approve","inputs":[{"name":"spender","type":"address","internalType":"address"},{"name":"value","type":"uint256","internalType":"uint256"}],"outputs":[{"name":"","type":"bool","internalType":"bool"}],"stateMutability":"nonpayable"},{"type":"function","name":"asset","inputs":[],"outputs":[{"name":"","type":"address","internalType":"contract IBaseMillionCat"}],"stateMutability":"view"},{"type":"function","name":"balanceOf","inputs":[{"name":"account","type":"address","internalType":"address"}],"outputs":[{"name":"","type":"uint256","internalType":"uint256"}],"stateMutability":"view"},{"type":"function","name":"decimals","inputs":[],"outputs":[{"name":"","type":"uint8","internalType":"uint8"}],"stateMutability":"view"},{"type":"function","name":"eip712Domain","inputs":[],"outputs":[{"name":"fields","type":"bytes1","internalType":"bytes1"},{"name":"name","type":"string","internalType":"string"},{"name":"version","type":"string","internalType":"string"},{"name":"chainId","type":"uint256","internalType":"uint256"},{"name":"verifyingContract","type":"address","internalType":"address"},{"name":"salt","type":"bytes32","internalType":"bytes32"},{"name":"extensions","type":"uint256[]","internalType":"uint256[]"}],"stateMutability":"view"},{"type":"function","name":"name","inputs":[],"outputs":[{"name":"","type":"string","internalType":"string"}],"stateMutability":"view"},{"type":"function","name":"nonces","inputs":[{"name":"owner","type":"address","internalType":"address"}],"outputs":[{"name":"","type":"uint256","internalType":"uint256"}],"stateMutability":"view"},{"type":"function","name":"permit","inputs":[{"name":"owner","type":"address","internalType":"address"},{"name":"spender","type":"address","internalType":"address"},{"name":"value","type":"uint256","internalType":"uint256"},{"name":"deadline","type":"uint256","internalType":"uint256"},{"name":"v","type":"uint8","internalType":"uint8"},{"name":"r","type":"bytes32","internalType":"bytes32"},{"name":"s","type":"bytes32","internalType":"bytes32"}],"outputs":[],"stateMutability":"nonpayable"},{"type":"function","name":"previewUnwrap","inputs":[{"name":"amount","type":"uint256","internalType":"uint256"},{"name":"newTotalShares","type":"uint256","internalType":"uint256"},{"name":"newTotalSupply","type":"uint256","internalType":"uint256"}],"outputs":[{"name":"assets_","type":"uint256","internalType":"uint256"}],"stateMutability":"view"},{"type":"function","name":"previewUnwrap","inputs":[{"name":"amount","type":"uint256","internalType":"uint256"}],"outputs":[{"name":"assets_","type":"uint256","internalType":"uint256"}],"stateMutability":"view"},{"type":"function","name":"previewWrap","inputs":[{"name":"assets","type":"uint256","internalType":"uint256"},{"name":"newTotalShares","type":"uint256","internalType":"uint256"},{"name":"newTotalSupply","type":"uint256","internalType":"uint256"}],"outputs":[{"name":"amount_","type":"uint256","internalType":"uint256"}],"stateMutability":"view"},{"type":"function","name":"previewWrap","inputs":[{"name":"assets","type":"uint256","internalType":"uint256"}],"outputs":[{"name":"amount_","type":"uint256","internalType":"uint256"}],"stateMutability":"view"},{"type":"function","name":"symbol","inputs":[],"outputs":[{"name":"","type":"string","internalType":"string"}],"stateMutability":"view"},{"type":"function","name":"totalSupply","inputs":[],"outputs":[{"name":"","type":"uint256","internalType":"uint256"}],"stateMutability":"view"},{"type":"function","name":"transfer","inputs":[{"name":"to","type":"address","internalType":"address"},{"name":"value","type":"uint256","internalType":"uint256"}],"outputs":[{"name":"","type":"bool","internalType":"bool"}],"stateMutability":"nonpayable"},{"type":"function","name":"transferFrom","inputs":[{"name":"from","type":"address","internalType":"address"},{"name":"to","type":"address","internalType":"address"},{"name":"value","type":"uint256","internalType":"uint256"}],"outputs":[{"name":"","type":"bool","internalType":"bool"}],"stateMutability":"nonpayable"},{"type":"function","name":"unwrap","inputs":[{"name":"amount","type":"uint256","internalType":"uint256"},{"name":"receiver","type":"address","internalType":"address"}],"outputs":[{"name":"assets_","type":"uint256","internalType":"uint256"}],"stateMutability":"nonpayable"},{"type":"function","name":"unwrap","inputs":[{"name":"amount","type":"uint256","internalType":"uint256"}],"outputs":[{"name":"assets_","type":"uint256","internalType":"uint256"}],"stateMutability":"nonpayable"},{"type":"function","name":"wrap","inputs":[{"name":"assets","type":"uint256","internalType":"uint256"},{"name":"receiver","type":"address","internalType":"address"}],"outputs":[{"name":"amount_","type":"uint256","internalType":"uint256"}],"stateMutability":"nonpayable"},{"type":"function","name":"wrap","inputs":[{"name":"assets","type":"uint256","internalType":"uint256"}],"outputs":[{"name":"amount_","type":"uint256","internalType":"uint256"}],"stateMutability":"nonpayable"},{"type":"function","name":"wrapShares","inputs":[{"name":"shares","type":"uint256","internalType":"uint256"},{"name":"receiver","type":"address","internalType":"address"}],"outputs":[{"name":"amount_","type":"uint256","internalType":"uint256"}],"stateMutability":"nonpayable"},{"type":"event","name":"Approval","inputs":[{"name":"owner","type":"address","indexed":true,"internalType":"address"},{"name":"spender","type":"address","indexed":true,"internalType":"address"},{"name":"value","type":"uint256","indexed":false,"internalType":"uint256"}],"anonymous":false},{"type":"event","name":"EIP712DomainChanged","inputs":[],"anonymous":false},{"type":"event","name":"Transfer","inputs":[{"name":"from","type":"address","indexed":true,"internalType":"address"},{"name":"to","type":"address","indexed":true,"internalType":"address"},{"name":"value","type":"uint256","indexed":false,"internalType":"uint256"}],"anonymous":false},{"type":"error","name":"ECDSAInvalidSignature","inputs":[]},{"type":"error","name":"ECDSAInvalidSignatureLength","inputs":[{"name":"length","type":"uint256","internalType":"uint256"}]},{"type":"error","name":"ECDSAInvalidSignatureS","inputs":[{"name":"s","type":"bytes32","internalType":"bytes32"}]},{"type":"error","name":"ERC20InsufficientAllowance","inputs":[{"name":"spender","type":"address","internalType":"address"},{"name":"allowance","type":"uint256","internalType":"uint256"},{"name":"needed","type":"uint256","internalType":"uint256"}]},{"type":"error","name":"ERC20InsufficientBalance","inputs":[{"name":"sender","type":"address","internalType":"address"},{"name":"balance","type":"uint256","internalType":"uint256"},{"name":"needed","type":"uint256","internalType":"uint256"}]},{"type":"error","name":"ERC20InvalidApprover","inputs":[{"name":"approver","type":"address","internalType":"address"}]},{"type":"error","name":"ERC20InvalidReceiver","inputs":[{"name":"receiver","type":"address","internalType":"address"}]},{"type":"error","name":"ERC20InvalidSender","inputs":[{"name":"sender","type":"address","internalType":"address"}]},{"type":"error","name":"ERC20InvalidSpender","inputs":[{"name":"spender","type":"address","internalType":"address"}]},{"type":"error","name":"ERC2612ExpiredSignature","inputs":[{"name":"deadline","type":"uint256","internalType":"uint256"}]},{"type":"error","name":"ERC2612InvalidSigner","inputs":[{"name":"signer","type":"address","internalType":"address"},{"name":"owner","type":"address","internalType":"address"}]},{"type":"error","name":"InvalidAccountNonce","inputs":[{"name":"account","type":"address","internalType":"address"},{"name":"currentNonce","type":"uint256","internalType":"uint256"}]},{"type":"error","name":"InvalidShortString","inputs":[]},{"type":"error","name":"StringTooLong","inputs":[{"name":"str","type":"string","internalType":"string"}]}],"bytecode":{"object":"0x6101a060405234801561001157600080fd5b5060405161227f38038061227f8339810160408190526100309161029c565b6040518060400160405280601681526020017f5772617070656420506f6e7a696f20546865204361740000000000000000000081525080604051806040016040528060018152602001603160f81b8152506040518060400160405280601681526020017f5772617070656420506f6e7a696f2054686520436174000000000000000000008152506040518060400160405280600781526020016657504f4e5a494f60c81b81525081600390816100e6919061036d565b5060046100f3828261036d565b5061010391508390506005610222565b61012052610112816006610222565b61014052815160208084019190912060e052815190820120610100524660a05261019f60e05161010051604080517f8b73c3c69bb8fe3d512ecc4cf759cc79239f7b179b0ffacaa9a75d522b39400f60208201529081019290925260608201524660808201523060a082015260009060c00160405160208183030381529060405280519060200120905090565b60805250503060c052506001600160a01b0381166101608190526040805163fda9c94760e01b8152905163fda9c947916004808201926020929091908290030181865afa1580156101f4573d6000803e3d6000fd5b505050506040513d601f19601f82011682018060405250810190610218919061042c565b61018052506104b8565b600060208351101561023e5761023783610255565b905061024f565b81610249848261036d565b5060ff90505b92915050565b600080829050601f81511115610289578260405163305a27a960e01b81526004016102809190610445565b60405180910390fd5b805161029482610494565b179392505050565b6000602082840312156102ae57600080fd5b81516001600160a01b03811681146102c557600080fd5b9392505050565b634e487b7160e01b600052604160045260246000fd5b600181811c908216806102f657607f821691505b60208210810361031657634e487b7160e01b600052602260045260246000fd5b50919050565b601f821115610368576000816000526020600020601f850160051c810160208610156103455750805b601f850160051c820191505b8181101561036457828155600101610351565b5050505b505050565b81516001600160401b03811115610386576103866102cc565b61039a8161039484546102e2565b8461031c565b602080601f8311600181146103cf57600084156103b75750858301515b600019600386901b1c1916600185901b178555610364565b600085815260208120601f198616915b828110156103fe578886015182559484019460019091019084016103df565b508582101561041c5787850151600019600388901b60f8161c191681555b5050505050600190811b01905550565b60006020828403121561043e57600080fd5b5051919050565b60006020808352835180602085015260005b8181101561047357858101830151858201604001528201610457565b506000604082860101526040601f19601f8301168501019250505092915050565b805160208083015191908110156103165760001960209190910360031b1b16919050565b60805160a05160c05160e0516101005161012051610140516101605161018051611cfc610583600039600081816104c8015281816105f5015281816106a90152818161085701528181610bc80152610f7e015260008181610253015281816104ff0152818161062c0152818161070e015281816108ae01528181610b0201528181610c4201528181610ffb015261109801526000611110015260006110e301526000610f2501526000610efd01526000610e5801526000610e8201526000610eac0152611cfc6000f3fe608060405234801561001057600080fd5b506004361061018d5760003560e01c806370a08231116100e3578063aa9b074e1161008c578063de0e9a3e11610066578063de0e9a3e146103a3578063ea598cb0146103b6578063ee77584d146103c957600080fd5b8063aa9b074e14610335578063d505accf14610348578063dd62ed3e1461035d57600080fd5b806384b0196e116100bd57806384b0196e146102ff57806395d89b411461031a578063a9059cbb1461032257600080fd5b806370a08231146102a35780637647691d146102d95780637ecebe00146102ec57600080fd5b806323b872dd1161014557806338d52e0f1161011f57806338d52e0f14610239578063404b9d811461027d5780635d7d13161461029057600080fd5b806323b872dd1461020f578063313ce567146102225780633644e5151461023157600080fd5b80630d8a39b6116101765780630d8a39b6146101d357806313bac820146101f457806318160ddd1461020757600080fd5b806306fdde0314610192578063095ea7b3146101b0575b600080fd5b61019a6103dc565b6040516101a791906118e8565b60405180910390f35b6101c36101be366004611924565b61046e565b60405190151581526020016101a7565b6101e66101e136600461194e565b610488565b6040519081526020016101a7565b6101e661020236600461197a565b61057c565b6002546101e6565b6101c361021d3660046119a6565b610590565b604051601281526020016101a7565b6101e66105b4565b60405173ffffffffffffffffffffffffffffffffffffffff7f00000000000000000000000000000000000000000000000000000000000000001681526020016101a7565b6101e661028b3660046119e2565b6105c3565b6101e661029e36600461194e565b6106a1565b6101e66102b13660046119fb565b73ffffffffffffffffffffffffffffffffffffffff1660009081526020819052604090205490565b6101e66102e736600461197a565b610798565b6101e66102fa3660046119fb565b6107a5565b6103076107d0565b6040516101a79796959493929190611a16565b61019a610832565b6101c3610330366004611924565b610841565b6101e66103433660046119e2565b61084f565b61035b610356366004611ad8565b61092e565b005b6101e661036b366004611b4b565b73ffffffffffffffffffffffffffffffffffffffff918216600090815260016020908152604080832093909416825291909152205490565b6101e66103b13660046119e2565b610ae0565b6101e66103c43660046119e2565b610aed565b6101e66103d736600461197a565b610afa565b6060600380546103eb90611b75565b80601f016020809104026020016040519081016040528092919081815260200182805461041790611b75565b80156104645780601f1061043957610100808354040283529160200191610464565b820191906000526020600020905b81548152906001019060200180831161044757829003601f168201915b5050505050905090565b60003361047c818585610ba2565b60019150505b92915050565b6040517fc53dc7570000000000000000000000000000000000000000000000000000000081526004810184905260248101839052604481018290526000907f00000000000000000000000000000000000000000000000000000000000000009073ffffffffffffffffffffffffffffffffffffffff7f0000000000000000000000000000000000000000000000000000000000000000169063c53dc75790606401602060405180830381865afa158015610546573d6000803e3d6000fd5b505050506040513d601f19601f8201168201806040525081019061056a9190611bc8565b6105749190611c10565b949350505050565b6000610589338484610bb4565b9392505050565b60003361059e858285610cc4565b6105a9858585610d93565b506001949350505050565b60006105be610e3e565b905090565b6040517f361bb0c1000000000000000000000000000000000000000000000000000000008152600481018290526000907f00000000000000000000000000000000000000000000000000000000000000009073ffffffffffffffffffffffffffffffffffffffff7f0000000000000000000000000000000000000000000000000000000000000000169063361bb0c190602401602060405180830381865afa158015610673573d6000803e3d6000fd5b505050506040513d601f19601f820116820180604052508101906106979190611bc8565b6104829190611c10565b6000806106ce7f000000000000000000000000000000000000000000000000000000000000000086611c4b565b6040517f5e703fec0000000000000000000000000000000000000000000000000000000081526004810182905260248101869052604481018590529091507f000000000000000000000000000000000000000000000000000000000000000073ffffffffffffffffffffffffffffffffffffffff1690635e703fec906064015b602060405180830381865afa15801561076b573d6000803e3d6000fd5b505050506040513d601f19601f8201168201806040525081019061078f9190611bc8565b95945050505050565b6000610589338484610f76565b73ffffffffffffffffffffffffffffffffffffffff8116600090815260076020526040812054610482565b6000606080600080600060606107e46110dc565b6107ec611109565b604080516000808252602082019092527f0f000000000000000000000000000000000000000000000000000000000000009b939a50919850469750309650945092509050565b6060600480546103eb90611b75565b60003361047c818585610d93565b60008061087c7f000000000000000000000000000000000000000000000000000000000000000084611c4b565b6040517f6cf81ec6000000000000000000000000000000000000000000000000000000008152600481018290529091507f000000000000000000000000000000000000000000000000000000000000000073ffffffffffffffffffffffffffffffffffffffff1690636cf81ec690602401602060405180830381865afa15801561090a573d6000803e3d6000fd5b505050506040513d601f19601f820116820180604052508101906105899190611bc8565b83421115610970576040517f62791302000000000000000000000000000000000000000000000000000000008152600481018590526024015b60405180910390fd5b60007f6e71edae12b1b97f4d1f60370fef10105fa2faae0126114a169c64845d6126c98888886109ca8c73ffffffffffffffffffffffffffffffffffffffff16600090815260076020526040902080546001810190915590565b60408051602081019690965273ffffffffffffffffffffffffffffffffffffffff94851690860152929091166060840152608083015260a082015260c0810186905260e0016040516020818303038152906040528051906020012090506000610a3282611136565b90506000610a428287878761117e565b90508973ffffffffffffffffffffffffffffffffffffffff168173ffffffffffffffffffffffffffffffffffffffff1614610ac9576040517f4b800e4600000000000000000000000000000000000000000000000000000000815273ffffffffffffffffffffffffffffffffffffffff80831660048301528b166024820152604401610967565b610ad48a8a8a610ba2565b50505050505050505050565b6000610482338333610f76565b6000610482338333610bb4565b6000610589337f000000000000000000000000000000000000000000000000000000000000000073ffffffffffffffffffffffffffffffffffffffff16636cf81ec6866040518263ffffffff1660e01b8152600401610b5b91815260200190565b602060405180830381865afa158015610b78573d6000803e3d6000fd5b505050506040513d601f19601f82011682018060405250810190610b9c9190611bc8565b84610bb4565b610baf83838360016111ac565b505050565b6000610bbf836105c3565b90506000610bed7f000000000000000000000000000000000000000000000000000000000000000083611c4b565b6040517f6d78045900000000000000000000000000000000000000000000000000000000815273ffffffffffffffffffffffffffffffffffffffff8781166004830152306024830152604482018390529192507f000000000000000000000000000000000000000000000000000000000000000090911690636d780459906064016020604051808303816000875af1158015610c8d573d6000803e3d6000fd5b505050506040513d601f19601f82011682018060405250810190610cb19190611c62565b50610cbc83836112f4565b509392505050565b73ffffffffffffffffffffffffffffffffffffffff8381166000908152600160209081526040808320938616835292905220547fffffffffffffffffffffffffffffffffffffffffffffffffffffffffffffffff8114610d8d5781811015610d7e576040517ffb8f41b200000000000000000000000000000000000000000000000000000000815273ffffffffffffffffffffffffffffffffffffffff841660048201526024810182905260448101839052606401610967565b610d8d848484840360006111ac565b50505050565b73ffffffffffffffffffffffffffffffffffffffff8316610de3576040517f96c6fd1e00000000000000000000000000000000000000000000000000000000815260006004820152602401610967565b73ffffffffffffffffffffffffffffffffffffffff8216610e33576040517fec442f0500000000000000000000000000000000000000000000000000000000815260006004820152602401610967565b610baf838383611354565b60003073ffffffffffffffffffffffffffffffffffffffff7f000000000000000000000000000000000000000000000000000000000000000016148015610ea457507f000000000000000000000000000000000000000000000000000000000000000046145b15610ece57507f000000000000000000000000000000000000000000000000000000000000000090565b6105be604080517f8b73c3c69bb8fe3d512ecc4cf759cc79239f7b179b0ffacaa9a75d522b39400f60208201527f0000000000000000000000000000000000000000000000000000000000000000918101919091527f000000000000000000000000000000000000000000000000000000000000000060608201524660808201523060a082015260009060c00160405160208183030381529060405280519060200120905090565b600080610fa37f000000000000000000000000000000000000000000000000000000000000000085611c4b565b9050610faf85856114ff565b6040517f8fcb4e5b00000000000000000000000000000000000000000000000000000000815273ffffffffffffffffffffffffffffffffffffffff8481166004830152602482018390527f00000000000000000000000000000000000000000000000000000000000000001690638fcb4e5b906044016020604051808303816000875af1158015611044573d6000803e3d6000fd5b505050506040513d601f19601f820116820180604052508101906110689190611c62565b506040517f6cf81ec6000000000000000000000000000000000000000000000000000000008152600481018290527f000000000000000000000000000000000000000000000000000000000000000073ffffffffffffffffffffffffffffffffffffffff1690636cf81ec69060240161074e565b60606105be7f0000000000000000000000000000000000000000000000000000000000000000600561155b565b60606105be7f0000000000000000000000000000000000000000000000000000000000000000600661155b565b6000610482611143610e3e565b836040517f19010000000000000000000000000000000000000000000000000000000000008152600281019290925260228201526042902090565b60008060008061119088888888611606565b9250925092506111a08282611700565b50909695505050505050565b73ffffffffffffffffffffffffffffffffffffffff84166111fc576040517fe602df0500000000000000000000000000000000000000000000000000000000815260006004820152602401610967565b73ffffffffffffffffffffffffffffffffffffffff831661124c576040517f94280d6200000000000000000000000000000000000000000000000000000000815260006004820152602401610967565b73ffffffffffffffffffffffffffffffffffffffff80851660009081526001602090815260408083209387168352929052208290558015610d8d578273ffffffffffffffffffffffffffffffffffffffff168473ffffffffffffffffffffffffffffffffffffffff167f8c5be1e5ebec7d5bd14f71427d1e84f3dd0314c0f7b2291e5b200ac8c7c3b925846040516112e691815260200190565b60405180910390a350505050565b73ffffffffffffffffffffffffffffffffffffffff8216611344576040517fec442f0500000000000000000000000000000000000000000000000000000000815260006004820152602401610967565b61135060008383611354565b5050565b73ffffffffffffffffffffffffffffffffffffffff831661138c5780600260008282546113819190611c84565b9091555061143e9050565b73ffffffffffffffffffffffffffffffffffffffff831660009081526020819052604090205481811015611412576040517fe450d38c00000000000000000000000000000000000000000000000000000000815273ffffffffffffffffffffffffffffffffffffffff851660048201526024810182905260448101839052606401610967565b73ffffffffffffffffffffffffffffffffffffffff841660009081526020819052604090209082900390555b73ffffffffffffffffffffffffffffffffffffffff821661146757600280548290039055611493565b73ffffffffffffffffffffffffffffffffffffffff821660009081526020819052604090208054820190555b8173ffffffffffffffffffffffffffffffffffffffff168373ffffffffffffffffffffffffffffffffffffffff167fddf252ad1be2c89b69c2b068fc378daa952ba7f163c4a11628f55a4df523b3ef836040516114f291815260200190565b60405180910390a3505050565b73ffffffffffffffffffffffffffffffffffffffff821661154f576040517f96c6fd1e00000000000000000000000000000000000000000000000000000000815260006004820152602401610967565b61135082600083611354565b606060ff83146115755761156e83611804565b9050610482565b81805461158190611b75565b80601f01602080910402602001604051908101604052809291908181526020018280546115ad90611b75565b80156115fa5780601f106115cf576101008083540402835291602001916115fa565b820191906000526020600020905b8154815290600101906020018083116115dd57829003601f168201915b50505050509050610482565b600080807f7fffffffffffffffffffffffffffffff5d576e7357a4501ddfe92f46681b20a084111561164157506000915060039050826116f6565b604080516000808252602082018084528a905260ff891692820192909252606081018790526080810186905260019060a0016020604051602081039080840390855afa158015611695573d6000803e3d6000fd5b50506040517fffffffffffffffffffffffffffffffffffffffffffffffffffffffffffffffe0015191505073ffffffffffffffffffffffffffffffffffffffff81166116ec575060009250600191508290506116f6565b9250600091508190505b9450945094915050565b600082600381111561171457611714611c97565b0361171d575050565b600182600381111561173157611731611c97565b03611768576040517ff645eedf00000000000000000000000000000000000000000000000000000000815260040160405180910390fd5b600282600381111561177c5761177c611c97565b036117b6576040517ffce698f700000000000000000000000000000000000000000000000000000000815260048101829052602401610967565b60038260038111156117ca576117ca611c97565b03611350576040517fd78bce0c00000000000000000000000000000000000000000000000000000000815260048101829052602401610967565b6060600061181183611843565b604080516020808252818301909252919250600091906020820181803683375050509182525060208101929092525090565b600060ff8216601f811115610482576040517fb3512b0c00000000000000000000000000000000000000000000000000000000815260040160405180910390fd5b6000815180845260005b818110156118aa5760208185018101518683018201520161188e565b5060006020828601015260207fffffffffffffffffffffffffffffffffffffffffffffffffffffffffffffffe0601f83011685010191505092915050565b6020815260006105896020830184611884565b803573ffffffffffffffffffffffffffffffffffffffff8116811461191f57600080fd5b919050565b6000806040838503121561193757600080fd5b611940836118fb565b946020939093013593505050565b60008060006060848603121561196357600080fd5b505081359360208301359350604090920135919050565b6000806040838503121561198d57600080fd5b8235915061199d602084016118fb565b90509250929050565b6000806000606084860312156119bb57600080fd5b6119c4846118fb565b92506119d2602085016118fb565b9150604084013590509250925092565b6000602082840312156119f457600080fd5b5035919050565b600060208284031215611a0d57600080fd5b610589826118fb565b7fff00000000000000000000000000000000000000000000000000000000000000881681526000602060e06020840152611a5360e084018a611884565b8381036040850152611a65818a611884565b6060850189905273ffffffffffffffffffffffffffffffffffffffff8816608086015260a0850187905284810360c08601528551808252602080880193509091019060005b81811015611ac657835183529284019291840191600101611aaa565b50909c9b505050505050505050505050565b600080600080600080600060e0888a031215611af357600080fd5b611afc886118fb565b9650611b0a602089016118fb565b95506040880135945060608801359350608088013560ff81168114611b2e57600080fd5b9699959850939692959460a0840135945060c09093013592915050565b60008060408385031215611b5e57600080fd5b611b67836118fb565b915061199d602084016118fb565b600181811c90821680611b8957607f821691505b602082108103611bc2577f4e487b7100000000000000000000000000000000000000000000000000000000600052602260045260246000fd5b50919050565b600060208284031215611bda57600080fd5b5051919050565b7f4e487b7100000000000000000000000000000000000000000000000000000000600052601160045260246000fd5b600082611c46577f4e487b7100000000000000000000000000000000000000000000000000000000600052601260045260246000fd5b500490565b808202811582820484141761048257610482611be1565b600060208284031215611c7457600080fd5b8151801515811461058957600080fd5b8082018082111561048257610482611be1565b7f4e487b7100000000000000000000000000000000000000000000000000000000600052602160045260246000fdfea2646970667358221220bf2cf507374e106729fd460e7c364cf1c05acfc991e6e184268c40402215a3d864736f6c63430008190033","linkReferences":{}},"methodIdentifiers":{"DOMAIN_SEPARATOR()":"3644e515","allowance(address,address)":"dd62ed3e","approve(address,uint256)":"095ea7b3","asset()":"38d52e0f","balanceOf(address)":"70a08231","decimals()":"313ce567","eip712Domain()":"84b0196e","name()":"06fdde03","nonces(address)":"7ecebe00","permit(address,address,uint256,uint256,uint8,bytes32,bytes32)":"d505accf","previewUnwrap(uint256)":"aa9b074e","previewUnwrap(uint256,uint256,uint256)":"5d7d1316","previewWrap(uint256)":"404b9d81","previewWrap(uint256,uint256,uint256)":"0d8a39b6","symbol()":"95d89b41","totalSupply()":"18160ddd","transfer(address,uint256)":"a9059cbb","transferFrom(address,address,uint256)":"23b872dd","unwrap(uint256)":"de0e9a3e","unwrap(uint256,address)":"7647691d","wrap(uint256)":"ea598cb0","wrap(uint256,address)":"13bac820","wrapShares(uint256,address)":"ee77584d"},"id":51}